{"contracts/BatterySwap.sol":{"BatterySwap":{"abi":[{"inputs":[{"internalType":"uint256","name":"_currentStation","type":"uint256"},{"internalType":"string","name":"_metaAbi","type":"string"},{"internalType":"string","name":"_rfid","type":"string"}],"name":"addNewBatteryToStation","outputs":[],"stateMutability":"nonpayable","type":"function"},{"inputs":[{"internalType":"address","name":"_user","type":"address"},{"internalType":"string","name":"_metaAbi","type":"string"},{"internalType":"string","name":"_rfid","type":"string"}],"name":"addNewBatteryToUser","outputs":[],"stateMutability":"payable","type":"function"},{"inputs":[{"internalType":"string","name":"_location","type":"string"},{"internalType":"string","name":"_latitude","type":"string"},{"internalType":"string","name":"_longitude","type":"string"},{"internalType":"bool","name":"_isActive","type":"bool"},{"internalType":"bool","name":"_isRenewable","type":"bool"}],"name":"addNewStation","outputs":[],"stateMutability":"nonpayable","type":"function"},{"inputs":[{"internalType":"uint256","name":"","type":"uint256"}],"name":"batteries","outputs":[{"internalType":"uint256","name":"id","type":"uint256"},{"internalType":"uint256","name":"batteryPercentage","type":"uint256"},{"internalType":"uint256","name":"lastBlocktimeQueried","type":"uint256"},{"internalType":"enum BatterySwap.Status","name":"status","type":"uint8"},{"internalType":"uint256","name":"currentStation","type":"uint256"},{"internalType":"address","name":"currentUser","type":"address"},{"internalType":"string","name":"metaAbi","type":"string"}],"stateMutability":"view","type":"function"},{"inputs":[{"internalType":"address","name":"_user","type":"address"}],"name":"check","outputs":[{"internalType":"bool","name":"","type":"bool"}],"stateMutability":"view","type":"function"},{"inputs":[],"name":"ethPerCharge","outputs":[{"internalType":"uint256","name":"","type":"uint256"}],"stateMutability":"view","type":"function"},{"inputs":[],"name":"getAllStations","outputs":[{"components":[{"internalType":"uint256","name":"id","type":"uint256"},{"internalType":"string","name":"location","type":"string"},{"internalType":"string","name":"latitude","type":"string"},{"internalType":"string","name":"longitude","type":"string"},{"internalType":"bool","name":"isActive","type":"bool"},{"internalType":"bool","name":"isRenewable","type":"bool"}],"internalType":"struct Stations.Station[]","name":"","type":"tuple[]"}],"stateMutability":"view","type":"function"},{"inputs":[{"internalType":"uint256","name":"_stationId","type":"uint256"}],"name":"getBatteriesByStation","outputs":[{"internalType":"uint256[]","name":"","type":"uint256[]"}],"stateMutability":"view","type":"function"},{"inputs":[{"internalType":"address","name":"_user","type":"address"}],"name":"getBatteriesByUser","outputs":[{"internalType":"uint256[]","name":"","type":"uint256[]"}],"stateMutability":"view","type":"function"},{"inputs":[{"internalType":"uint256","name":"_batteryId","type":"uint256"}],"name":"getBatteryById","outputs":[{"components":[{"internalType":"uint256","name":"id","type":"uint256"},{"internalType":"uint256","name":"batteryPercentage","type":"uint256"},{"internalType":"uint256","name":"lastBlocktimeQueried","type":"uint256"},{"internalType":"enum BatterySwap.Status","name":"status","type":"uint8"},{"internalType":"uint256","name":"currentStation","type":"uint256"},{"internalType":"address","name":"currentUser","type":"address"},{"internalType":"string","name":"metaAbi","type":"string"}],"internalType":"struct BatterySwap.Battery","name":"","type":"tuple"}],"stateMutability":"view","type":"function"},{"inputs":[{"internalType":"uint256","name":"_batteryId","type":"uint256"}],"name":"getBatteryCurrentStation","outputs":[{"internalType":"uint256","name":"","type":"uint256"}],"stateMutability":"view","type":"function"},{"inputs":[{"internalType":"uint256","name":"_batteryId","type":"uint256"}],"name":"getBatteryCurrentUser","outputs":[{"internalType":"address","name":"","type":"address"}],"stateMutability":"view","type":"function"},{"inputs":[{"internalType":"uint256","name":"_batteryId","type":"uint256"}],"name":"getBatteryPercentage","outputs":[{"internalType":"uint256","name":"","type":"uint256"}],"stateMutability":"view","type":"function"},{"inputs":[{"internalType":"uint256","name":"_batteryId","type":"uint256"}],"name":"getBatteryStatus","outputs":[{"internalType":"enum BatterySwap.Status","name":"","type":"uint8"}],"stateMutability":"view","type":"function"},{"inputs":[{"internalType":"uint256","name":"_id","type":"uint256"}],"name":"getStation","outputs":[{"components":[{"internalType":"uint256","name":"id","type":"uint256"},{"internalType":"string","name":"location","type":"string"},{"internalType":"string","name":"latitude","type":"string"},{"internalType":"string","name":"longitude","type":"string"},{"internalType":"bool","name":"isActive","type":"bool"},{"internalType":"bool","name":"isRenewable","type":"bool"}],"internalType":"struct Stations.Station","name":"","type":"tuple"}],"stateMutability":"view","type":"function"},{"inputs":[{"internalType":"string","name":"","type":"string"}],"name":"rfidToBattery","outputs":[{"internalType":"uint256","name":"","type":"uint256"}],"stateMutability":"view","type":"function"},{"inputs":[{"internalType":"address","name":"_user","type":"address"}],"name":"scan","outputs":[],"stateMutability":"nonpayable","type":"function"},{"inputs":[{"internalType":"uint256","name":"","type":"uint256"}],"name":"stations","outputs":[{"internalType":"uint256","name":"id","type":"uint256"},{"internalType":"string","name":"location","type":"string"},{"internalType":"string","name":"latitude","type":"string"},{"internalType":"string","name":"longitude","type":"string"},{"internalType":"bool","name":"isActive","type":"bool"},{"internalType":"bool","name":"isRenewable","type":"bool"}],"stateMutability":"view","type":"function"},{"inputs":[{"internalType":"uint256","name":"_stationId","type":"uint256"}],"name":"swapAllBatteries","outputs":[],"stateMutability":"nonpayable","type":"function"},{"inputs":[{"internalType":"uint256","name":"_id","type":"uint256"}],"name":"toggleStationActivity","outputs":[],"stateMutability":"nonpayable","type":"function"},{"inputs":[{"internalType":"address","name":"_user","type":"address"}],"name":"totalCostForUser","outputs":[{"internalType":"uint256","name":"","type":"uint256"}],"stateMutability":"view","type":"function"},{"inputs":[{"internalType":"uint256","name":"newCharge","type":"uint256"},{"internalType":"uint256","name":"_batteryId","type":"uint256"}],"name":"updateBatteryCharge","outputs":[],"stateMutability":"nonpayable","type":"function"},{"inputs":[{"internalType":"uint256","name":"_newEthPerCharge","type":"uint256"}],"name":"updateEthPerCharge","outputs":[],"stateMutability":"nonpayable","type":"function"},{"inputs":[{"internalType":"address","name":"","type":"address"}],"name":"userToLastScanned","outputs":[{"internalType":"uint256","name":"","type":"uint256"}],"stateMutability":"view","type":"function"}],"evm":{"bytecode":{"linkReferences":{},"object":"60806040526032600655655af3107a400060075561015460085534801561002557600080fd5b506130cd806100356000396000f3fe60806040526004361061014b5760003560e01c806392f859db116100b6578063e3c510651161006f578063e3c5106514610545578063e70c6f8d14610582578063e904311f146105ab578063ed44706b146105d4578063f055784c146105fd578063fb299219146106195761014b565b806392f859db146103d2578063995fcac814610414578063b23e95a314610451578063bf2281901461048e578063c23697a8146104cb578063c78efc5c146105085761014b565b80635d07b4b4116101085780635d07b4b4146102985780635f392c90146102c35780636837e1e4146103065780636bcf5781146103435780636ff0efcb1461036c578063921637cd146103a95761014b565b8063106e054d146101505780631722cbe81461018d5780632118f9c4146101ca57806327b6a3b4146101f5578063333d1645146102325780634b0b292e1461026f575b600080fd5b34801561015c57600080fd5b506101776004803603810190610172919061230c565b610642565b60405161018491906129c2565b60405180910390f35b34801561019957600080fd5b506101b460048036038101906101af919061230c565b610874565b6040516101c19190612905565b60405180910390f35b3480156101d657600080fd5b506101df6108b0565b6040516101ec91906128a6565b60405180910390f35b34801561020157600080fd5b5061021c6004803603810190610217919061213c565b610b05565b60405161022991906128c8565b60405180910390f35b34801561023e57600080fd5b506102596004803603810190610254919061230c565b610d00565b60405161026691906129e4565b60405180910390f35b34801561027b57600080fd5b506102966004803603810190610291919061230c565b610dcd565b005b3480156102a457600080fd5b506102ad6110c6565b6040516102ba91906129e4565b60405180910390f35b3480156102cf57600080fd5b506102ea60048036038101906102e5919061230c565b6110cc565b6040516102fd9796959493929190612a75565b60405180910390f35b34801561031257600080fd5b5061032d6004803603810190610328919061213c565b6111d3565b60405161033a91906129e4565b60405180910390f35b34801561034f57600080fd5b5061036a6004803603810190610365919061230c565b611255565b005b34801561037857600080fd5b50610393600480360381019061038e919061230c565b61125f565b6040516103a091906129a0565b60405180910390f35b3480156103b557600080fd5b506103d060048036038101906103cb919061223d565b6113e6565b005b3480156103de57600080fd5b506103f960048036038101906103f4919061230c565b61150b565b60405161040b969594939291906129ff565b60405180910390f35b34801561042057600080fd5b5061043b600480360381019061043691906121f4565b611709565b60405161044891906129e4565b60405180910390f35b34801561045d57600080fd5b506104786004803603810190610473919061213c565b611737565b60405161048591906129e4565b60405180910390f35b34801561049a57600080fd5b506104b560048036038101906104b0919061230c565b61174f565b6040516104c2919061288b565b60405180910390f35b3480156104d757600080fd5b506104f260048036038101906104ed919061213c565b61180d565b6040516104ff91906128ea565b60405180910390f35b34801561051457600080fd5b5061052f600480360381019061052a919061230c565b611875565b60405161053c91906128c8565b60405180910390f35b34801561055157600080fd5b5061056c6004803603810190610567919061230c565b611a86565b60405161057991906129e4565b60405180910390f35b34801561058e57600080fd5b506105a960048036038101906105a4919061213c565b611b23565b005b3480156105b757600080fd5b506105d260048036038101906105cd9190612339565b611b6a565b005b3480156105e057600080fd5b506105fb60048036038101906105f6919061230c565b611cf8565b005b61061760048036038101906106129190612169565b611d6b565b005b34801561062557600080fd5b50610640600480360381019061063b91906123c4565b611ef9565b005b61064a611f4b565b6000828154811061065e5761065d612f17565b5b90600052602060002090600502016040518060c00160405290816000820154815260200160018201805461069190612daf565b80601f01602080910402602001604051908101604052809291908181526020018280546106bd90612daf565b801561070a5780601f106106df5761010080835404028352916020019161070a565b820191906000526020600020905b8154815290600101906020018083116106ed57829003601f168201915b5050505050815260200160028201805461072390612daf565b80601f016020809104026020016040519081016040528092919081815260200182805461074f90612daf565b801561079c5780601f106107715761010080835404028352916020019161079c565b820191906000526020600020905b81548152906001019060200180831161077f57829003601f168201915b505050505081526020016003820180546107b590612daf565b80601f01602080910402602001604051908101604052809291908181526020018280546107e190612daf565b801561082e5780601f106108035761010080835404028352916020019161082e565b820191906000526020600020905b81548152906001019060200180831161081157829003601f168201915b505050505081526020016004820160009054906101000a900460ff161515151581526020016004820160019054906101000a900460ff1615151515815250509050919050565b60006002828154811061088a57610889612f17565b5b906000526020600020906007020160030160009054906101000a900460ff169050919050565b60606000805480602002602001604051908101604052809291908181526020016000905b82821015610afc57838290600052602060002090600502016040518060c00160405290816000820154815260200160018201805461091190612daf565b80601f016020809104026020016040519081016040528092919081815260200182805461093d90612daf565b801561098a5780601f1061095f5761010080835404028352916020019161098a565b820191906000526020600020905b81548152906001019060200180831161096d57829003601f168201915b505050505081526020016002820180546109a390612daf565b80601f01602080910402602001604051908101604052809291908181526020018280546109cf90612daf565b8015610a1c5780601f106109f157610100808354040283529160200191610a1c565b820191906000526020600020905b8154815290600101906020018083116109ff57829003601f168201915b50505050508152602001600382018054610a3590612daf565b80601f0160208091040260200160405190810160405280929190818152602001828054610a6190612daf565b8015610aae5780601f10610a8357610100808354040283529160200191610aae565b820191906000526020600020905b815481529060010190602001808311610a9157829003601f168201915b505050505081526020016004820160009054906101000a900460ff161515151581526020016004820160019054906101000a900460ff161515151581525050815260200190600101906108d4565b50505050905090565b60606000610b136003611f27565b67ffffffffffffffff811115610b2c57610b2b612f46565b5b604051908082528060200260200182016040528015610b5a5781602001602082028036833780820191505090505b5090506000805b600280549050811015610c4e578473ffffffffffffffffffffffffffffffffffffffff1660028281548110610b9957610b98612f17565b5b906000526020600020906007020160050160009054906101000a900473ffffffffffffffffffffffffffffffffffffffff1673ffffffffffffffffffffffffffffffffffffffff161415610c3b5760028181548110610bfb57610bfa612f17565b5b906000526020600020906007020160000154838381518110610c2057610c1f612f17565b5b6020026020010181815250508180610c3790612e12565b9250505b8080610c4690612e12565b915050610b61565b5060008167ffffffffffffffff811115610c6b57610c6a612f46565b5b604051908082528060200260200182016040528015610c995781602001602082028036833780820191505090505b50905060005b82811015610cf457838181518110610cba57610cb9612f17565b5b6020026020010151828281518110610cd557610cd4612f17565b5b6020026020010181815250508080610cec90612e12565b915050610c9f565b50809350505050919050565b60008060028381548110610d1757610d16612f17565b5b90600052602060002090600702016002015442610d349190612ccc565b9050600060065482610d469190612c41565b60028581548110610d5a57610d59612f17565b5b906000526020600020906007020160010154610d769190612ccc565b1115610dc25760065481610d8a9190612c41565b60028481548110610d9e57610d9d612f17565b5b906000526020600020906007020160010154610dba9190612ccc565b915050610dc8565b60009150505b919050565b6000610dd833610b05565b90506000815111610e1e576040517f08c379a0000000000000000000000000000000000000000000000000000000008152600401610e1590612940565b60405180910390fd5b6000610e2983611875565b9050815181511015610e70576040517f08c379a0000000000000000000000000000000000000000000000000000000008152600401610e6790612960565b60405180910390fd5b60005b8251811015610fba5760006002848381518110610e9357610e92612f17565b5b602002602001015181548110610eac57610eab612f17565b5b906000526020600020906007020160030160006101000a81548160ff02191690836003811115610edf57610ede612eb9565b5b0217905550836002848381518110610efa57610ef9612f17565b5b602002602001015181548110610f1357610f12612f17565b5b90600052602060002090600702016004018190555060006002848381518110610f3f57610f3e612f17565b5b602002602001015181548110610f5857610f57612f17565b5b906000526020600020906007020160050160006101000a81548173ffffffffffffffffffffffffffffffffffffffff021916908373ffffffffffffffffffffffffffffffffffffffff1602179055508080610fb290612e12565b915050610e73565b5060005b82518110156110c05760016002838381518110610fde57610fdd612f17565b5b602002602001015181548110610ff757610ff6612f17565b5b906000526020600020906007020160030160006101000a81548160ff0219169083600381111561102a57611029612eb9565b5b021790555033600283838151811061104557611044612f17565b5b60200260200101518154811061105e5761105d612f17565b5b906000526020600020906007020160050160006101000a81548173ffffffffffffffffffffffffffffffffffffffff021916908373ffffffffffffffffffffffffffffffffffffffff16021790555080806110b890612e12565b915050610fbe565b50505050565b60075481565b600281815481106110dc57600080fd5b90600052602060002090600702016000915090508060000154908060010154908060020154908060030160009054906101000a900460ff16908060040154908060050160009054906101000a900473ffffffffffffffffffffffffffffffffffffffff169080600601805461115090612daf565b80601f016020809104026020016040519081016040528092919081815260200182805461117c90612daf565b80156111c95780601f1061119e576101008083540402835291602001916111c9565b820191906000526020600020905b8154815290600101906020018083116111ac57829003601f168201915b5050505050905087565b6000806111df83610b05565b90506000805b825181101561124a5760075461121484838151811061120757611206612f17565b5b6020026020010151610d00565b60646112209190612ccc565b61122a9190612c72565b826112359190612beb565b9150808061124290612e12565b9150506111e5565b508092505050919050565b8060078190555050565b611267611f85565b6002828154811061127b5761127a612f17565b5b90600052602060002090600702016040518060e00160405290816000820154815260200160018201548152602001600282015481526020016003820160009054906101000a900460ff1660038111156112d7576112d6612eb9565b5b60038111156112e9576112e8612eb9565b5b8152602001600482015481526020016005820160009054906101000a900473ffffffffffffffffffffffffffffffffffffffff1673ffffffffffffffffffffffffffffffffffffffff1673ffffffffffffffffffffffffffffffffffffffff16815260200160068201805461135d90612daf565b80601f016020809104026020016040519081016040528092919081815260200182805461138990612daf565b80156113d65780601f106113ab576101008083540402835291602001916113d6565b820191906000526020600020905b8154815290600101906020018083116113b957829003601f168201915b5050505050815250509050919050565b60006113f26001611f27565b905060006040518060c0016040528083815260200188815260200187815260200186815260200185151581526020018415158152509050600081908060018154018082558091505060019003906000526020600020906005020160009091909190915060008201518160000155602082015181600101908051906020019061147b929190611fea565b506040820151816002019080519060200190611498929190611fea565b5060608201518160030190805190602001906114b5929190611fea565b5060808201518160040160006101000a81548160ff02191690831515021790555060a08201518160040160016101000a81548160ff02191690831515021790555050506115026001611f35565b50505050505050565b6000818154811061151b57600080fd5b906000526020600020906005020160009150905080600001549080600101805461154490612daf565b80601f016020809104026020016040519081016040528092919081815260200182805461157090612daf565b80156115bd5780601f10611592576101008083540402835291602001916115bd565b820191906000526020600020905b8154815290600101906020018083116115a057829003601f168201915b5050505050908060020180546115d290612daf565b80601f01602080910402602001604051908101604052809291908181526020018280546115fe90612daf565b801561164b5780601f106116205761010080835404028352916020019161164b565b820191906000526020600020905b81548152906001019060200180831161162e57829003601f168201915b50505050509080600301805461166090612daf565b80601f016020809104026020016040519081016040528092919081815260200182805461168c90612daf565b80156116d95780601f106116ae576101008083540402835291602001916116d9565b820191906000526020600020905b8154815290600101906020018083116116bc57829003601f168201915b5050505050908060040160009054906101000a900460ff16908060040160019054906101000a900460ff16905086565b6004818051602081018201805184825260208301602085012081835280955050505050506000915090505481565b60056020528060005260406000206000915090505481565b60006001600381111561176557611764612eb9565b5b61176e83610874565b60038111156117805761177f612eb9565b5b146117c0576040517f08c379a00000000000000000000000000000000000000000000000000000000081526004016117b790612980565b60405180910390fd5b600282815481106117d4576117d3612f17565b5b906000526020600020906007020160050160009054906101000a900473ffffffffffffffffffffffffffffffffffffffff169050919050565b6000600854600560008473ffffffffffffffffffffffffffffffffffffffff1673ffffffffffffffffffffffffffffffffffffffff168152602001908152602001600020544261185d9190612ccc565b1161186b5760019050611870565b600090505b919050565b606060006118836003611f27565b67ffffffffffffffff81111561189c5761189b612f46565b5b6040519080825280602002602001820160405280156118ca5781602001602082028036833780820191505090505b5090506000805b6002805490508110156119d45784600282815481106118f3576118f2612f17565b5b90600052602060002090600702016004015414801561196857506000600381111561192157611920612eb9565b5b6002828154811061193557611934612f17565b5b906000526020600020906007020160030160009054906101000a900460ff16600381111561196657611965612eb9565b5b145b156119c1576002818154811061198157611980612f17565b5b9060005260206000209060070201600001548383815181106119a6576119a5612f17565b5b60200260200101818152505081806119bd90612e12565b9250505b80806119cc90612e12565b9150506118d1565b5060008167ffffffffffffffff8111156119f1576119f0612f46565b5b604051908082528060200260200182016040528015611a1f5781602001602082028036833780820191505090505b50905060005b82811015611a7a57838181518110611a4057611a3f612f17565b5b6020026020010151828281518110611a5b57611a5a612f17565b5b6020026020010181815250508080611a7290612e12565b915050611a25565b50809350505050919050565b6000806003811115611a9b57611a9a612eb9565b5b611aa483610874565b6003811115611ab657611ab5612eb9565b5b14611af6576040517f08c379a0000000000000000000000000000000000000000000000000000000008152600401611aed90612920565b60405180910390fd5b60028281548110611b0a57611b09612f17565b5b9060005260206000209060070201600401549050919050565b42600560008373ffffffffffffffffffffffffffffffffffffffff1673ffffffffffffffffffffffffffffffffffffffff1681526020019081526020016000208190555050565b6000611b766003611f27565b905060006040518060e001604052808381526020016064815260200142815260200160006003811115611bac57611bab612eb9565b5b8152602001868152602001600073ffffffffffffffffffffffffffffffffffffffff168152602001858152509050600281908060018154018082558091505060019003906000526020600020906007020160009091909190915060008201518160000155602082015181600101556040820151816002015560608201518160030160006101000a81548160ff02191690836003811115611c4f57611c4e612eb9565b5b02179055506080820151816004015560a08201518160050160006101000a81548173ffffffffffffffffffffffffffffffffffffffff021916908373ffffffffffffffffffffffffffffffffffffffff16021790555060c0820151816006019080519060200190611cc1929190611fea565b50505081600484604051611cd59190612874565b908152602001604051809103902081905550611cf16003611f35565b5050505050565b60008181548110611d0c57611d0b612f17565b5b906000526020600020906005020160040160009054906101000a900460ff161560008281548110611d4057611d3f612f17565b5b906000526020600020906005020160040160006101000a81548160ff02191690831515021790555050565b6000611d776003611f27565b905060006040518060e001604052808381526020016064815260200142815260200160016003811115611dad57611dac612eb9565b5b8152602001600081526020018673ffffffffffffffffffffffffffffffffffffffff168152602001858152509050600281908060018154018082558091505060019003906000526020600020906007020160009091909190915060008201518160000155602082015181600101556040820151816002015560608201518160030160006101000a81548160ff02191690836003811115611e5057611e4f612eb9565b5b02179055506080820151816004015560a08201518160050160006101000a81548173ffffffffffffffffffffffffffffffffffffffff021916908373ffffffffffffffffffffffffffffffffffffffff16021790555060c0820151816006019080519060200190611ec2929190611fea565b50505081600484604051611ed69190612874565b908152602001604051809103902081905550611ef26003611f35565b5050505050565b8160028281548110611f0e57611f0d612f17565b5b9060005260206000209060070201600101819055505050565b600081600001549050919050565b6001816000016000828254019250508190555050565b6040518060c00160405280600081526020016060815260200160608152602001606081526020016000151581526020016000151581525090565b6040518060e0016040528060008152602001600081526020016000815260200160006003811115611fb957611fb8612eb9565b5b815260200160008152602001600073ffffffffffffffffffffffffffffffffffffffff168152602001606081525090565b828054611ff690612daf565b90600052602060002090601f016020900481019282612018576000855561205f565b82601f1061203157805160ff191683800117855561205f565b8280016001018555821561205f579182015b8281111561205e578251825591602001919060010190612043565b5b50905061206c9190612070565b5090565b5b80821115612089576000816000905550600101612071565b5090565b60006120a061209b84612b10565b612aeb565b9050828152602081018484840111156120bc576120bb612f7a565b5b6120c7848285612d6d565b509392505050565b6000813590506120de81613052565b92915050565b6000813590506120f381613069565b92915050565b600082601f83011261210e5761210d612f75565b5b813561211e84826020860161208d565b91505092915050565b60008135905061213681613080565b92915050565b60006020828403121561215257612151612f84565b5b6000612160848285016120cf565b91505092915050565b60008060006060848603121561218257612181612f84565b5b6000612190868287016120cf565b935050602084013567ffffffffffffffff8111156121b1576121b0612f7f565b5b6121bd868287016120f9565b925050604084013567ffffffffffffffff8111156121de576121dd612f7f565b5b6121ea868287016120f9565b9150509250925092565b60006020828403121561220a57612209612f84565b5b600082013567ffffffffffffffff81111561222857612227612f7f565b5b612234848285016120f9565b91505092915050565b600080600080600060a0868803121561225957612258612f84565b5b600086013567ffffffffffffffff81111561227757612276612f7f565b5b612283888289016120f9565b955050602086013567ffffffffffffffff8111156122a4576122a3612f7f565b5b6122b0888289016120f9565b945050604086013567ffffffffffffffff8111156122d1576122d0612f7f565b5b6122dd888289016120f9565b93505060606122ee888289016120e4565b92505060806122ff888289016120e4565b9150509295509295909350565b60006020828403121561232257612321612f84565b5b600061233084828501612127565b91505092915050565b60008060006060848603121561235257612351612f84565b5b600061236086828701612127565b935050602084013567ffffffffffffffff81111561238157612380612f7f565b5b61238d868287016120f9565b925050604084013567ffffffffffffffff8111156123ae576123ad612f7f565b5b6123ba868287016120f9565b9150509250925092565b600080604083850312156123db576123da612f84565b5b60006123e985828601612127565b92505060206123fa85828601612127565b9150509250929050565b60006124108383612728565b905092915050565b60006124248383612856565b60208301905092915050565b61243981612d00565b82525050565b61244881612d00565b82525050565b600061245982612b61565b6124638185612b9c565b93508360208202850161247585612b41565b8060005b858110156124b157848403895281516124928582612404565b945061249d83612b82565b925060208a01995050600181019050612479565b50829750879550505050505092915050565b60006124ce82612b6c565b6124d88185612bad565b93506124e383612b51565b8060005b838110156125145781516124fb8882612418565b975061250683612b8f565b9250506001810190506124e7565b5085935050505092915050565b61252a81612d12565b82525050565b61253981612d12565b82525050565b61254881612d5b565b82525050565b61255781612d5b565b82525050565b600061256882612b77565b6125728185612bbe565b9350612582818560208601612d7c565b61258b81612f89565b840191505092915050565b60006125a182612b77565b6125ab8185612bcf565b93506125bb818560208601612d7c565b6125c481612f89565b840191505092915050565b60006125da82612b77565b6125e48185612be0565b93506125f4818560208601612d7c565b80840191505092915050565b600061260d601983612bcf565b915061261882612f9a565b602082019050919050565b6000612630601583612bcf565b915061263b82612fc3565b602082019050919050565b6000612653601e83612bcf565b915061265e82612fec565b602082019050919050565b6000612676601583612bcf565b915061268182613015565b602082019050919050565b600060e0830160008301516126a46000860182612856565b5060208301516126b76020860182612856565b5060408301516126ca6040860182612856565b5060608301516126dd606086018261253f565b5060808301516126f06080860182612856565b5060a083015161270360a0860182612430565b5060c083015184820360c086015261271b828261255d565b9150508091505092915050565b600060c0830160008301516127406000860182612856565b5060208301518482036020860152612758828261255d565b91505060408301518482036040860152612772828261255d565b9150506060830151848203606086015261278c828261255d565b91505060808301516127a16080860182612521565b5060a08301516127b460a0860182612521565b508091505092915050565b600060c0830160008301516127d76000860182612856565b50602083015184820360208601526127ef828261255d565b91505060408301518482036040860152612809828261255d565b91505060608301518482036060860152612823828261255d565b91505060808301516128386080860182612521565b5060a083015161284b60a0860182612521565b508091505092915050565b61285f81612d51565b82525050565b61286e81612d51565b82525050565b600061288082846125cf565b915081905092915050565b60006020820190506128a0600083018461243f565b92915050565b600060208201905081810360008301526128c0818461244e565b905092915050565b600060208201905081810360008301526128e281846124c3565b905092915050565b60006020820190506128ff6000830184612530565b92915050565b600060208201905061291a600083018461254e565b92915050565b6000602082019050818103600083015261293981612600565b9050919050565b6000602082019050818103600083015261295981612623565b9050919050565b6000602082019050818103600083015261297981612646565b9050919050565b6000602082019050818103600083015261299981612669565b9050919050565b600060208201905081810360008301526129ba818461268c565b905092915050565b600060208201905081810360008301526129dc81846127bf565b905092915050565b60006020820190506129f96000830184612865565b92915050565b600060c082019050612a146000830189612865565b8181036020830152612a268188612596565b90508181036040830152612a3a8187612596565b90508181036060830152612a4e8186612596565b9050612a5d6080830185612530565b612a6a60a0830184612530565b979650505050505050565b600060e082019050612a8a600083018a612865565b612a976020830189612865565b612aa46040830188612865565b612ab1606083018761254e565b612abe6080830186612865565b612acb60a083018561243f565b81810360c0830152612add8184612596565b905098975050505050505050565b6000612af5612b06565b9050612b018282612de1565b919050565b6000604051905090565b600067ffffffffffffffff821115612b2b57612b2a612f46565b5b612b3482612f89565b9050602081019050919050565b6000819050602082019050919050565b6000819050602082019050919050565b600081519050919050565b600081519050919050565b600081519050919050565b6000602082019050919050565b6000602082019050919050565b600082825260208201905092915050565b600082825260208201905092915050565b600082825260208201905092915050565b600082825260208201905092915050565b600081905092915050565b6000612bf682612d51565b9150612c0183612d51565b9250827fffffffffffffffffffffffffffffffffffffffffffffffffffffffffffffffff03821115612c3657612c35612e5b565b5b828201905092915050565b6000612c4c82612d51565b9150612c5783612d51565b925082612c6757612c66612e8a565b5b828204905092915050565b6000612c7d82612d51565b9150612c8883612d51565b9250817fffffffffffffffffffffffffffffffffffffffffffffffffffffffffffffffff0483118215151615612cc157612cc0612e5b565b5b828202905092915050565b6000612cd782612d51565b9150612ce283612d51565b925082821015612cf557612cf4612e5b565b5b828203905092915050565b6000612d0b82612d31565b9050919050565b60008115159050919050565b6000819050612d2c8261303e565b919050565b600073ffffffffffffffffffffffffffffffffffffffff82169050919050565b6000819050919050565b6000612d6682612d1e565b9050919050565b82818337600083830152505050565b60005b83811015612d9a578082015181840152602081019050612d7f565b83811115612da9576000848401525b50505050565b60006002820490506001821680612dc757607f821691505b60208210811415612ddb57612dda612ee8565b5b50919050565b612dea82612f89565b810181811067ffffffffffffffff82111715612e0957612e08612f46565b5b80604052505050565b6000612e1d82612d51565b91507fffffffffffffffffffffffffffffffffffffffffffffffffffffffffffffffff821415612e5057612e4f612e5b565b5b600182019050919050565b7f4e487b7100000000000000000000000000000000000000000000000000000000600052601160045260246000fd5b7f4e487b7100000000000000000000000000000000000000000000000000000000600052601260045260246000fd5b7f4e487b7100000000000000000000000000000000000000000000000000000000600052602160045260246000fd5b7f4e487b7100000000000000000000000000000000000000000000000000000000600052602260045260246000fd5b7f4e487b7100000000000000000000000000000000000000000000000000000000600052603260045260246000fd5b7f4e487b7100000000000000000000000000000000000000000000000000000000600052604160045260246000fd5b600080fd5b600080fd5b600080fd5b600080fd5b6000601f19601f8301169050919050565b7f42617474657279206973206e6f7420696e2073746174696f6e00000000000000600082015250565b7f5573657220686173206e6f206261747465726965730000000000000000000000600082015250565b7f4e6f7420656e6f7567682062617474657269657320617661696c61626c650000600082015250565b7f42617474657279206973206e6f7420696e207573650000000000000000000000600082015250565b6004811061304f5761304e612eb9565b5b50565b61305b81612d00565b811461306657600080fd5b50565b61307281612d12565b811461307d57600080fd5b50565b61308981612d51565b811461309457600080fd5b5056fea2646970667358221220d9ca61b19c4d33dbb472614ec5b38693cc21d88708fd9cb62b78498b7afaa81d64736f6c63430008070033","opcodes":"PUSH1 0x80 PUSH1 0x40 MSTORE PUSH1 0x32 PUSH1 0x6 SSTORE PUSH6 0x5AF3107A4000 PUSH1 0x7 SSTORE PUSH2 0x154 PUSH1 0x8 SSTORE CALLVALUE DUP1 ISZERO PUSH2 0x25 JUMPI PUSH1 0x0 DUP1 REVERT JUMPDEST POP PUSH2 0x30CD DUP1 PUSH2 0x35 PUSH1 0x0 CODECOPY PUSH1 0x0 RETURN INVALID PUSH1 0x80 PUSH1 0x40 MSTORE PUSH1 0x4 CALLDATASIZE LT PUSH2 0x14B JUMPI PUSH1 0x0 CALLDATALOAD PUSH1 0xE0 SHR DUP1 PUSH4 0x92F859DB GT PUSH2 0xB6 JUMPI DUP1 PUSH4 0xE3C51065 GT PUSH2 0x6F JUMPI DUP1 PUSH4 0xE3C51065 EQ PUSH2 0x545 JUMPI DUP1 PUSH4 0xE70C6F8D EQ PUSH2 0x582 JUMPI DUP1 PUSH4 0xE904311F EQ PUSH2 0x5AB JUMPI DUP1 PUSH4 0xED44706B EQ PUSH2 0x5D4 JUMPI DUP1 PUSH4 0xF055784C EQ PUSH2 0x5FD JUMPI DUP1 PUSH4 0xFB299219 EQ PUSH2 0x619 JUMPI PUSH2 0x14B JUMP JUMPDEST DUP1 PUSH4 0x92F859DB EQ PUSH2 0x3D2 JUMPI DUP1 PUSH4 0x995FCAC8 EQ PUSH2 0x414 JUMPI DUP1 PUSH4 0xB23E95A3 EQ PUSH2 0x451 JUMPI DUP1 PUSH4 0xBF228190 EQ PUSH2 0x48E JUMPI DUP1 PUSH4 0xC23697A8 EQ PUSH2 0x4CB JUMPI DUP1 PUSH4 0xC78EFC5C EQ PUSH2 0x508 JUMPI PUSH2 0x14B JUMP JUMPDEST DUP1 PUSH4 0x5D07B4B4 GT PUSH2 0x108 JUMPI DUP1 PUSH4 0x5D07B4B4 EQ PUSH2 0x298 JUMPI DUP1 PUSH4 0x5F392C90 EQ PUSH2 0x2C3 JUMPI DUP1 PUSH4 0x6837E1E4 EQ PUSH2 0x306 JUMPI DUP1 PUSH4 0x6BCF5781 EQ PUSH2 0x343 JUMPI DUP1 PUSH4 0x6FF0EFCB EQ PUSH2 0x36C JUMPI DUP1 PUSH4 0x921637CD EQ PUSH2 0x3A9 JUMPI PUSH2 0x14B JUMP JUMPDEST DUP1 PUSH4 0x106E054D EQ PUSH2 0x150 JUMPI DUP1 PUSH4 0x1722CBE8 EQ PUSH2 0x18D JUMPI DUP1 PUSH4 0x2118F9C4 EQ PUSH2 0x1CA JUMPI DUP1 PUSH4 0x27B6A3B4 EQ PUSH2 0x1F5 JUMPI DUP1 PUSH4 0x333D1645 EQ PUSH2 0x232 JUMPI DUP1 PUSH4 0x4B0B292E EQ PUSH2 0x26F JUMPI JUMPDEST PUSH1 0x0 DUP1 REVERT JUMPDEST CALLVALUE DUP1 ISZERO PUSH2 0x15C JUMPI PUSH1 0x0 DUP1 REVERT JUMPDEST POP PUSH2 0x177 PUSH1 0x4 DUP1 CALLDATASIZE SUB DUP2 ADD SWAP1 PUSH2 0x172 SWAP2 SWAP1 PUSH2 0x230C JUMP JUMPDEST PUSH2 0x642 JUMP JUMPDEST PUSH1 0x40 MLOAD PUSH2 0x184 SWAP2 SWAP1 PUSH2 0x29C2 JUMP JUMPDEST PUSH1 0x40 MLOAD DUP1 SWAP2 SUB SWAP1 RETURN JUMPDEST CALLVALUE DUP1 ISZERO PUSH2 0x199 JUMPI PUSH1 0x0 DUP1 REVERT JUMPDEST POP PUSH2 0x1B4 PUSH1 0x4 DUP1 CALLDATASIZE SUB DUP2 ADD SWAP1 PUSH2 0x1AF SWAP2 SWAP1 PUSH2 0x230C JUMP JUMPDEST PUSH2 0x874 JUMP JUMPDEST PUSH1 0x40 MLOAD PUSH2 0x1C1 SWAP2 SWAP1 PUSH2 0x2905 JUMP JUMPDEST PUSH1 0x40 MLOAD DUP1 SWAP2 SUB SWAP1 RETURN JUMPDEST CALLVALUE DUP1 ISZERO PUSH2 0x1D6 JUMPI PUSH1 0x0 DUP1 REVERT JUMPDEST POP PUSH2 0x1DF PUSH2 0x8B0 JUMP JUMPDEST PUSH1 0x40 MLOAD PUSH2 0x1EC SWAP2 SWAP1 PUSH2 0x28A6 JUMP JUMPDEST PUSH1 0x40 MLOAD DUP1 SWAP2 SUB SWAP1 RETURN JUMPDEST CALLVALUE DUP1 ISZERO PUSH2 0x201 JUMPI PUSH1 0x0 DUP1 REVERT JUMPDEST POP PUSH2 0x21C PUSH1 0x4 DUP1 CALLDATASIZE SUB DUP2 ADD SWAP1 PUSH2 0x217 SWAP2 SWAP1 PUSH2 0x213C JUMP JUMPDEST PUSH2 0xB05 JUMP JUMPDEST PUSH1 0x40 MLOAD PUSH2 0x229 SWAP2 SWAP1 PUSH2 0x28C8 JUMP JUMPDEST PUSH1 0x40 MLOAD DUP1 SWAP2 SUB SWAP1 RETURN JUMPDEST CALLVALUE DUP1 ISZERO PUSH2 0x23E JUMPI PUSH1 0x0 DUP1 REVERT JUMPDEST POP PUSH2 0x259 PUSH1 0x4 DUP1 CALLDATASIZE SUB DUP2 ADD SWAP1 PUSH2 0x254 SWAP2 SWAP1 PUSH2 0x230C JUMP JUMPDEST PUSH2 0xD00 JUMP JUMPDEST PUSH1 0x40 MLOAD PUSH2 0x266 SWAP2 SWAP1 PUSH2 0x29E4 JUMP JUMPDEST PUSH1 0x40 MLOAD DUP1 SWAP2 SUB SWAP1 RETURN JUMPDEST CALLVALUE DUP1 ISZERO PUSH2 0x27B JUMPI PUSH1 0x0 DUP1 REVERT JUMPDEST POP PUSH2 0x296 PUSH1 0x4 DUP1 CALLDATASIZE SUB DUP2 ADD SWAP1 PUSH2 0x291 SWAP2 SWAP1 PUSH2 0x230C JUMP JUMPDEST PUSH2 0xDCD JUMP JUMPDEST STOP JUMPDEST CALLVALUE DUP1 ISZERO PUSH2 0x2A4 JUMPI PUSH1 0x0 DUP1 REVERT JUMPDEST POP PUSH2 0x2AD PUSH2 0x10C6 JUMP JUMPDEST PUSH1 0x40 MLOAD PUSH2 0x2BA SWAP2 SWAP1 PUSH2 0x29E4 JUMP JUMPDEST PUSH1 0x40 MLOAD DUP1 SWAP2 SUB SWAP1 RETURN JUMPDEST CALLVALUE DUP1 ISZERO PUSH2 0x2CF JUMPI PUSH1 0x0 DUP1 REVERT JUMPDEST POP PUSH2 0x2EA PUSH1 0x4 DUP1 CALLDATASIZE SUB DUP2 ADD SWAP1 PUSH2 0x2E5 SWAP2 SWAP1 PUSH2 0x230C JUMP JUMPDEST PUSH2 0x10CC JUMP JUMPDEST PUSH1 0x40 MLOAD PUSH2 0x2FD SWAP8 SWAP7 SWAP6 SWAP5 SWAP4 SWAP3 SWAP2 SWAP1 PUSH2 0x2A75 JUMP JUMPDEST PUSH1 0x40 MLOAD DUP1 SWAP2 SUB SWAP1 RETURN JUMPDEST CALLVALUE DUP1 ISZERO PUSH2 0x312 JUMPI PUSH1 0x0 DUP1 REVERT JUMPDEST POP PUSH2 0x32D PUSH1 0x4 DUP1 CALLDATASIZE SUB DUP2 ADD SWAP1 PUSH2 0x328 SWAP2 SWAP1 PUSH2 0x213C JUMP JUMPDEST PUSH2 0x11D3 JUMP JUMPDEST PUSH1 0x40 MLOAD PUSH2 0x33A SWAP2 SWAP1 PUSH2 0x29E4 JUMP JUMPDEST PUSH1 0x40 MLOAD DUP1 SWAP2 SUB SWAP1 RETURN JUMPDEST CALLVALUE DUP1 ISZERO PUSH2 0x34F JUMPI PUSH1 0x0 DUP1 REVERT JUMPDEST POP PUSH2 0x36A PUSH1 0x4 DUP1 CALLDATASIZE SUB DUP2 ADD SWAP1 PUSH2 0x365 SWAP2 SWAP1 PUSH2 0x230C JUMP JUMPDEST PUSH2 0x1255 JUMP JUMPDEST STOP JUMPDEST CALLVALUE DUP1 ISZERO PUSH2 0x378 JUMPI PUSH1 0x0 DUP1 REVERT JUMPDEST POP PUSH2 0x393 PUSH1 0x4 DUP1 CALLDATASIZE SUB DUP2 ADD SWAP1 PUSH2 0x38E SWAP2 SWAP1 PUSH2 0x230C JUMP JUMPDEST PUSH2 0x125F JUMP JUMPDEST PUSH1 0x40 MLOAD PUSH2 0x3A0 SWAP2 SWAP1 PUSH2 0x29A0 JUMP JUMPDEST PUSH1 0x40 MLOAD DUP1 SWAP2 SUB SWAP1 RETURN JUMPDEST CALLVALUE DUP1 ISZERO PUSH2 0x3B5 JUMPI PUSH1 0x0 DUP1 REVERT JUMPDEST POP PUSH2 0x3D0 PUSH1 0x4 DUP1 CALLDATASIZE SUB DUP2 ADD SWAP1 PUSH2 0x3CB SWAP2 SWAP1 PUSH2 0x223D JUMP JUMPDEST PUSH2 0x13E6 JUMP JUMPDEST STOP JUMPDEST CALLVALUE DUP1 ISZERO PUSH2 0x3DE JUMPI PUSH1 0x0 DUP1 REVERT JUMPDEST POP PUSH2 0x3F9 PUSH1 0x4 DUP1 CALLDATASIZE SUB DUP2 ADD SWAP1 PUSH2 0x3F4 SWAP2 SWAP1 PUSH2 0x230C JUMP JUMPDEST PUSH2 0x150B JUMP JUMPDEST PUSH1 0x40 MLOAD PUSH2 0x40B SWAP7 SWAP6 SWAP5 SWAP4 SWAP3 SWAP2 SWAP1 PUSH2 0x29FF JUMP JUMPDEST PUSH1 0x40 MLOAD DUP1 SWAP2 SUB SWAP1 RETURN JUMPDEST CALLVALUE DUP1 ISZERO PUSH2 0x420 JUMPI PUSH1 0x0 DUP1 REVERT JUMPDEST POP PUSH2 0x43B PUSH1 0x4 DUP1 CALLDATASIZE SUB DUP2 ADD SWAP1 PUSH2 0x436 SWAP2 SWAP1 PUSH2 0x21F4 JUMP JUMPDEST PUSH2 0x1709 JUMP JUMPDEST PUSH1 0x40 MLOAD PUSH2 0x448 SWAP2 SWAP1 PUSH2 0x29E4 JUMP JUMPDEST PUSH1 0x40 MLOAD DUP1 SWAP2 SUB SWAP1 RETURN JUMPDEST CALLVALUE DUP1 ISZERO PUSH2 0x45D JUMPI PUSH1 0x0 DUP1 REVERT JUMPDEST POP PUSH2 0x478 PUSH1 0x4 DUP1 CALLDATASIZE SUB DUP2 ADD SWAP1 PUSH2 0x473 SWAP2 SWAP1 PUSH2 0x213C JUMP JUMPDEST PUSH2 0x1737 JUMP JUMPDEST PUSH1 0x40 MLOAD PUSH2 0x485 SWAP2 SWAP1 PUSH2 0x29E4 JUMP JUMPDEST PUSH1 0x40 MLOAD DUP1 SWAP2 SUB SWAP1 RETURN JUMPDEST CALLVALUE DUP1 ISZERO PUSH2 0x49A JUMPI PUSH1 0x0 DUP1 REVERT JUMPDEST POP PUSH2 0x4B5 PUSH1 0x4 DUP1 CALLDATASIZE SUB DUP2 ADD SWAP1 PUSH2 0x4B0 SWAP2 SWAP1 PUSH2 0x230C JUMP JUMPDEST PUSH2 0x174F JUMP JUMPDEST PUSH1 0x40 MLOAD PUSH2 0x4C2 SWAP2 SWAP1 PUSH2 0x288B JUMP JUMPDEST PUSH1 0x40 MLOAD DUP1 SWAP2 SUB SWAP1 RETURN JUMPDEST CALLVALUE DUP1 ISZERO PUSH2 0x4D7 JUMPI PUSH1 0x0 DUP1 REVERT JUMPDEST POP PUSH2 0x4F2 PUSH1 0x4 DUP1 CALLDATASIZE SUB DUP2 ADD SWAP1 PUSH2 0x4ED SWAP2 SWAP1 PUSH2 0x213C JUMP JUMPDEST PUSH2 0x180D JUMP JUMPDEST PUSH1 0x40 MLOAD PUSH2 0x4FF SWAP2 SWAP1 PUSH2 0x28EA JUMP JUMPDEST PUSH1 0x40 MLOAD DUP1 SWAP2 SUB SWAP1 RETURN JUMPDEST CALLVALUE DUP1 ISZERO PUSH2 0x514 JUMPI PUSH1 0x0 DUP1 REVERT JUMPDEST POP PUSH2 0x52F PUSH1 0x4 DUP1 CALLDATASIZE SUB DUP2 ADD SWAP1 PUSH2 0x52A SWAP2 SWAP1 PUSH2 0x230C JUMP JUMPDEST PUSH2 0x1875 JUMP JUMPDEST PUSH1 0x40 MLOAD PUSH2 0x53C SWAP2 SWAP1 PUSH2 0x28C8 JUMP JUMPDEST PUSH1 0x40 MLOAD DUP1 SWAP2 SUB SWAP1 RETURN JUMPDEST CALLVALUE DUP1 ISZERO PUSH2 0x551 JUMPI PUSH1 0x0 DUP1 REVERT JUMPDEST POP PUSH2 0x56C PUSH1 0x4 DUP1 CALLDATASIZE SUB DUP2 ADD SWAP1 PUSH2 0x567 SWAP2 SWAP1 PUSH2 0x230C JUMP JUMPDEST PUSH2 0x1A86 JUMP JUMPDEST PUSH1 0x40 MLOAD PUSH2 0x579 SWAP2 SWAP1 PUSH2 0x29E4 JUMP JUMPDEST PUSH1 0x40 MLOAD DUP1 SWAP2 SUB SWAP1 RETURN JUMPDEST CALLVALUE DUP1 ISZERO PUSH2 0x58E JUMPI PUSH1 0x0 DUP1 REVERT JUMPDEST POP PUSH2 0x5A9 PUSH1 0x4 DUP1 CALLDATASIZE SUB DUP2 ADD SWAP1 PUSH2 0x5A4 SWAP2 SWAP1 PUSH2 0x213C JUMP JUMPDEST PUSH2 0x1B23 JUMP JUMPDEST STOP JUMPDEST CALLVALUE DUP1 ISZERO PUSH2 0x5B7 JUMPI PUSH1 0x0 DUP1 REVERT JUMPDEST POP PUSH2 0x5D2 PUSH1 0x4 DUP1 CALLDATASIZE SUB DUP2 ADD SWAP1 PUSH2 0x5CD SWAP2 SWAP1 PUSH2 0x2339 JUMP JUMPDEST PUSH2 0x1B6A JUMP JUMPDEST STOP JUMPDEST CALLVALUE DUP1 ISZERO PUSH2 0x5E0 JUMPI PUSH1 0x0 DUP1 REVERT JUMPDEST POP PUSH2 0x5FB PUSH1 0x4 DUP1 CALLDATASIZE SUB DUP2 ADD SWAP1 PUSH2 0x5F6 SWAP2 SWAP1 PUSH2 0x230C JUMP JUMPDEST PUSH2 0x1CF8 JUMP JUMPDEST STOP JUMPDEST PUSH2 0x617 PUSH1 0x4 DUP1 CALLDATASIZE SUB DUP2 ADD SWAP1 PUSH2 0x612 SWAP2 SWAP1 PUSH2 0x2169 JUMP JUMPDEST PUSH2 0x1D6B JUMP JUMPDEST STOP JUMPDEST CALLVALUE DUP1 ISZERO PUSH2 0x625 JUMPI PUSH1 0x0 DUP1 REVERT JUMPDEST POP PUSH2 0x640 PUSH1 0x4 DUP1 CALLDATASIZE SUB DUP2 ADD SWAP1 PUSH2 0x63B SWAP2 SWAP1 PUSH2 0x23C4 JUMP JUMPDEST PUSH2 0x1EF9 JUMP JUMPDEST STOP JUMPDEST PUSH2 0x64A PUSH2 0x1F4B JUMP JUMPDEST PUSH1 0x0 DUP3 DUP2 SLOAD DUP2 LT PUSH2 0x65E JUMPI PUSH2 0x65D PUSH2 0x2F17 JUMP JUMPDEST JUMPDEST SWAP1 PUSH1 0x0 MSTORE PUSH1 0x20 PUSH1 0x0 KECCAK256 SWAP1 PUSH1 0x5 MUL ADD PUSH1 0x40 MLOAD DUP1 PUSH1 0xC0 ADD PUSH1 0x40 MSTORE SWAP1 DUP2 PUSH1 0x0 DUP3 ADD SLOAD DUP2 MSTORE PUSH1 0x20 ADD PUSH1 0x1 DUP3 ADD DUP1 SLOAD PUSH2 0x691 SWAP1 PUSH2 0x2DAF JUMP JUMPDEST DUP1 PUSH1 0x1F ADD PUSH1 0x20 DUP1 SWAP2 DIV MUL PUSH1 0x20 ADD PUSH1 0x40 MLOAD SWAP1 DUP2 ADD PUSH1 0x40 MSTORE DUP1 SWAP3 SWAP2 SWAP1 DUP2 DUP2 MSTORE PUSH1 0x20 ADD DUP3 DUP1 SLOAD PUSH2 0x6BD SWAP1 PUSH2 0x2DAF JUMP JUMPDEST DUP1 ISZERO PUSH2 0x70A JUMPI DUP1 PUSH1 0x1F LT PUSH2 0x6DF JUMPI PUSH2 0x100 DUP1 DUP4 SLOAD DIV MUL DUP4 MSTORE SWAP2 PUSH1 0x20 ADD SWAP2 PUSH2 0x70A JUMP JUMPDEST DUP3 ADD SWAP2 SWAP1 PUSH1 0x0 MSTORE PUSH1 0x20 PUSH1 0x0 KECCAK256 SWAP1 JUMPDEST DUP2 SLOAD DUP2 MSTORE SWAP1 PUSH1 0x1 ADD SWAP1 PUSH1 0x20 ADD DUP1 DUP4 GT PUSH2 0x6ED JUMPI DUP3 SWAP1 SUB PUSH1 0x1F AND DUP3 ADD SWAP2 JUMPDEST POP POP POP POP POP DUP2 MSTORE PUSH1 0x20 ADD PUSH1 0x2 DUP3 ADD DUP1 SLOAD PUSH2 0x723 SWAP1 PUSH2 0x2DAF JUMP JUMPDEST DUP1 PUSH1 0x1F ADD PUSH1 0x20 DUP1 SWAP2 DIV MUL PUSH1 0x20 ADD PUSH1 0x40 MLOAD SWAP1 DUP2 ADD PUSH1 0x40 MSTORE DUP1 SWAP3 SWAP2 SWAP1 DUP2 DUP2 MSTORE PUSH1 0x20 ADD DUP3 DUP1 SLOAD PUSH2 0x74F SWAP1 PUSH2 0x2DAF JUMP JUMPDEST DUP1 ISZERO PUSH2 0x79C JUMPI DUP1 PUSH1 0x1F LT PUSH2 0x771 JUMPI PUSH2 0x100 DUP1 DUP4 SLOAD DIV MUL DUP4 MSTORE SWAP2 PUSH1 0x20 ADD SWAP2 PUSH2 0x79C JUMP JUMPDEST DUP3 ADD SWAP2 SWAP1 PUSH1 0x0 MSTORE PUSH1 0x20 PUSH1 0x0 KECCAK256 SWAP1 JUMPDEST DUP2 SLOAD DUP2 MSTORE SWAP1 PUSH1 0x1 ADD SWAP1 PUSH1 0x20 ADD DUP1 DUP4 GT PUSH2 0x77F JUMPI DUP3 SWAP1 SUB PUSH1 0x1F AND DUP3 ADD SWAP2 JUMPDEST POP POP POP POP POP DUP2 MSTORE PUSH1 0x20 ADD PUSH1 0x3 DUP3 ADD DUP1 SLOAD PUSH2 0x7B5 SWAP1 PUSH2 0x2DAF JUMP JUMPDEST DUP1 PUSH1 0x1F ADD PUSH1 0x20 DUP1 SWAP2 DIV MUL PUSH1 0x20 ADD PUSH1 0x40 MLOAD SWAP1 DUP2 ADD PUSH1 0x40 MSTORE DUP1 SWAP3 SWAP2 SWAP1 DUP2 DUP2 MSTORE PUSH1 0x20 ADD DUP3 DUP1 SLOAD PUSH2 0x7E1 SWAP1 PUSH2 0x2DAF JUMP JUMPDEST DUP1 ISZERO PUSH2 0x82E JUMPI DUP1 PUSH1 0x1F LT PUSH2 0x803 JUMPI PUSH2 0x100 DUP1 DUP4 SLOAD DIV MUL DUP4 MSTORE SWAP2 PUSH1 0x20 ADD SWAP2 PUSH2 0x82E JUMP JUMPDEST DUP3 ADD SWAP2 SWAP1 PUSH1 0x0 MSTORE PUSH1 0x20 PUSH1 0x0 KECCAK256 SWAP1 JUMPDEST DUP2 SLOAD DUP2 MSTORE SWAP1 PUSH1 0x1 ADD SWAP1 PUSH1 0x20 ADD DUP1 DUP4 GT PUSH2 0x811 JUMPI DUP3 SWAP1 SUB PUSH1 0x1F AND DUP3 ADD SWAP2 JUMPDEST POP POP POP POP POP DUP2 MSTORE PUSH1 0x20 ADD PUSH1 0x4 DUP3 ADD PUSH1 0x0 SWAP1 SLOAD SWAP1 PUSH2 0x100 EXP SWAP1 DIV PUSH1 0xFF AND ISZERO ISZERO ISZERO ISZERO DUP2 MSTORE PUSH1 0x20 ADD PUSH1 0x4 DUP3 ADD PUSH1 0x1 SWAP1 SLOAD SWAP1 PUSH2 0x100 EXP SWAP1 DIV PUSH1 0xFF AND ISZERO ISZERO ISZERO ISZERO DUP2 MSTORE POP POP SWAP1 POP SWAP2 SWAP1 POP JUMP JUMPDEST PUSH1 0x0 PUSH1 0x2 DUP3 DUP2 SLOAD DUP2 LT PUSH2 0x88A JUMPI PUSH2 0x889 PUSH2 0x2F17 JUMP JUMPDEST JUMPDEST SWAP1 PUSH1 0x0 MSTORE PUSH1 0x20 PUSH1 0x0 KECCAK256 SWAP1 PUSH1 0x7 MUL ADD PUSH1 0x3 ADD PUSH1 0x0 SWAP1 SLOAD SWAP1 PUSH2 0x100 EXP SWAP1 DIV PUSH1 0xFF AND SWAP1 POP SWAP2 SWAP1 POP JUMP JUMPDEST PUSH1 0x60 PUSH1 0x0 DUP1 SLOAD DUP1 PUSH1 0x20 MUL PUSH1 0x20 ADD PUSH1 0x40 MLOAD SWAP1 DUP2 ADD PUSH1 0x40 MSTORE DUP1 SWAP3 SWAP2 SWAP1 DUP2 DUP2 MSTORE PUSH1 0x20 ADD PUSH1 0x0 SWAP1 JUMPDEST DUP3 DUP3 LT ISZERO PUSH2 0xAFC JUMPI DUP4 DUP3 SWAP1 PUSH1 0x0 MSTORE PUSH1 0x20 PUSH1 0x0 KECCAK256 SWAP1 PUSH1 0x5 MUL ADD PUSH1 0x40 MLOAD DUP1 PUSH1 0xC0 ADD PUSH1 0x40 MSTORE SWAP1 DUP2 PUSH1 0x0 DUP3 ADD SLOAD DUP2 MSTORE PUSH1 0x20 ADD PUSH1 0x1 DUP3 ADD DUP1 SLOAD PUSH2 0x911 SWAP1 PUSH2 0x2DAF JUMP JUMPDEST DUP1 PUSH1 0x1F ADD PUSH1 0x20 DUP1 SWAP2 DIV MUL PUSH1 0x20 ADD PUSH1 0x40 MLOAD SWAP1 DUP2 ADD PUSH1 0x40 MSTORE DUP1 SWAP3 SWAP2 SWAP1 DUP2 DUP2 MSTORE PUSH1 0x20 ADD DUP3 DUP1 SLOAD PUSH2 0x93D SWAP1 PUSH2 0x2DAF JUMP JUMPDEST DUP1 ISZERO PUSH2 0x98A JUMPI DUP1 PUSH1 0x1F LT PUSH2 0x95F JUMPI PUSH2 0x100 DUP1 DUP4 SLOAD DIV MUL DUP4 MSTORE SWAP2 PUSH1 0x20 ADD SWAP2 PUSH2 0x98A JUMP JUMPDEST DUP3 ADD SWAP2 SWAP1 PUSH1 0x0 MSTORE PUSH1 0x20 PUSH1 0x0 KECCAK256 SWAP1 JUMPDEST DUP2 SLOAD DUP2 MSTORE SWAP1 PUSH1 0x1 ADD SWAP1 PUSH1 0x20 ADD DUP1 DUP4 GT PUSH2 0x96D JUMPI DUP3 SWAP1 SUB PUSH1 0x1F AND DUP3 ADD SWAP2 JUMPDEST POP POP POP POP POP DUP2 MSTORE PUSH1 0x20 ADD PUSH1 0x2 DUP3 ADD DUP1 SLOAD PUSH2 0x9A3 SWAP1 PUSH2 0x2DAF JUMP JUMPDEST DUP1 PUSH1 0x1F ADD PUSH1 0x20 DUP1 SWAP2 DIV MUL PUSH1 0x20 ADD PUSH1 0x40 MLOAD SWAP1 DUP2 ADD PUSH1 0x40 MSTORE DUP1 SWAP3 SWAP2 SWAP1 DUP2 DUP2 MSTORE PUSH1 0x20 ADD DUP3 DUP1 SLOAD PUSH2 0x9CF SWAP1 PUSH2 0x2DAF JUMP JUMPDEST DUP1 ISZERO PUSH2 0xA1C JUMPI DUP1 PUSH1 0x1F LT PUSH2 0x9F1 JUMPI PUSH2 0x100 DUP1 DUP4 SLOAD DIV MUL DUP4 MSTORE SWAP2 PUSH1 0x20 ADD SWAP2 PUSH2 0xA1C JUMP JUMPDEST DUP3 ADD SWAP2 SWAP1 PUSH1 0x0 MSTORE PUSH1 0x20 PUSH1 0x0 KECCAK256 SWAP1 JUMPDEST DUP2 SLOAD DUP2 MSTORE SWAP1 PUSH1 0x1 ADD SWAP1 PUSH1 0x20 ADD DUP1 DUP4 GT PUSH2 0x9FF JUMPI DUP3 SWAP1 SUB PUSH1 0x1F AND DUP3 ADD SWAP2 JUMPDEST POP POP POP POP POP DUP2 MSTORE PUSH1 0x20 ADD PUSH1 0x3 DUP3 ADD DUP1 SLOAD PUSH2 0xA35 SWAP1 PUSH2 0x2DAF JUMP JUMPDEST DUP1 PUSH1 0x1F ADD PUSH1 0x20 DUP1 SWAP2 DIV MUL PUSH1 0x20 ADD PUSH1 0x40 MLOAD SWAP1 DUP2 ADD PUSH1 0x40 MSTORE DUP1 SWAP3 SWAP2 SWAP1 DUP2 DUP2 MSTORE PUSH1 0x20 ADD DUP3 DUP1 SLOAD PUSH2 0xA61 SWAP1 PUSH2 0x2DAF JUMP JUMPDEST DUP1 ISZERO PUSH2 0xAAE JUMPI DUP1 PUSH1 0x1F LT PUSH2 0xA83 JUMPI PUSH2 0x100 DUP1 DUP4 SLOAD DIV MUL DUP4 MSTORE SWAP2 PUSH1 0x20 ADD SWAP2 PUSH2 0xAAE JUMP JUMPDEST DUP3 ADD SWAP2 SWAP1 PUSH1 0x0 MSTORE PUSH1 0x20 PUSH1 0x0 KECCAK256 SWAP1 JUMPDEST DUP2 SLOAD DUP2 MSTORE SWAP1 PUSH1 0x1 ADD SWAP1 PUSH1 0x20 ADD DUP1 DUP4 GT PUSH2 0xA91 JUMPI DUP3 SWAP1 SUB PUSH1 0x1F AND DUP3 ADD SWAP2 JUMPDEST POP POP POP POP POP DUP2 MSTORE PUSH1 0x20 ADD PUSH1 0x4 DUP3 ADD PUSH1 0x0 SWAP1 SLOAD SWAP1 PUSH2 0x100 EXP SWAP1 DIV PUSH1 0xFF AND ISZERO ISZERO ISZERO ISZERO DUP2 MSTORE PUSH1 0x20 ADD PUSH1 0x4 DUP3 ADD PUSH1 0x1 SWAP1 SLOAD SWAP1 PUSH2 0x100 EXP SWAP1 DIV PUSH1 0xFF AND ISZERO ISZERO ISZERO ISZERO DUP2 MSTORE POP POP DUP2 MSTORE PUSH1 0x20 ADD SWAP1 PUSH1 0x1 ADD SWAP1 PUSH2 0x8D4 JUMP JUMPDEST POP POP POP POP SWAP1 POP SWAP1 JUMP JUMPDEST PUSH1 0x60 PUSH1 0x0 PUSH2 0xB13 PUSH1 0x3 PUSH2 0x1F27 JUMP JUMPDEST PUSH8 0xFFFFFFFFFFFFFFFF DUP2 GT ISZERO PUSH2 0xB2C JUMPI PUSH2 0xB2B PUSH2 0x2F46 JUMP JUMPDEST JUMPDEST PUSH1 0x40 MLOAD SWAP1 DUP1 DUP3 MSTORE DUP1 PUSH1 0x20 MUL PUSH1 0x20 ADD DUP3 ADD PUSH1 0x40 MSTORE DUP1 ISZERO PUSH2 0xB5A JUMPI DUP2 PUSH1 0x20 ADD PUSH1 0x20 DUP3 MUL DUP1 CALLDATASIZE DUP4 CALLDATACOPY DUP1 DUP3 ADD SWAP2 POP POP SWAP1 POP JUMPDEST POP SWAP1 POP PUSH1 0x0 DUP1 JUMPDEST PUSH1 0x2 DUP1 SLOAD SWAP1 POP DUP2 LT ISZERO PUSH2 0xC4E JUMPI DUP5 PUSH20 0xFFFFFFFFFFFFFFFFFFFFFFFFFFFFFFFFFFFFFFFF AND PUSH1 0x2 DUP3 DUP2 SLOAD DUP2 LT PUSH2 0xB99 JUMPI PUSH2 0xB98 PUSH2 0x2F17 JUMP JUMPDEST JUMPDEST SWAP1 PUSH1 0x0 MSTORE PUSH1 0x20 PUSH1 0x0 KECCAK256 SWAP1 PUSH1 0x7 MUL ADD PUSH1 0x5 ADD PUSH1 0x0 SWAP1 SLOAD SWAP1 PUSH2 0x100 EXP SWAP1 DIV PUSH20 0xFFFFFFFFFFFFFFFFFFFFFFFFFFFFFFFFFFFFFFFF AND PUSH20 0xFFFFFFFFFFFFFFFFFFFFFFFFFFFFFFFFFFFFFFFF AND EQ ISZERO PUSH2 0xC3B JUMPI PUSH1 0x2 DUP2 DUP2 SLOAD DUP2 LT PUSH2 0xBFB JUMPI PUSH2 0xBFA PUSH2 0x2F17 JUMP JUMPDEST JUMPDEST SWAP1 PUSH1 0x0 MSTORE PUSH1 0x20 PUSH1 0x0 KECCAK256 SWAP1 PUSH1 0x7 MUL ADD PUSH1 0x0 ADD SLOAD DUP4 DUP4 DUP2 MLOAD DUP2 LT PUSH2 0xC20 JUMPI PUSH2 0xC1F PUSH2 0x2F17 JUMP JUMPDEST JUMPDEST PUSH1 0x20 MUL PUSH1 0x20 ADD ADD DUP2 DUP2 MSTORE POP POP DUP2 DUP1 PUSH2 0xC37 SWAP1 PUSH2 0x2E12 JUMP JUMPDEST SWAP3 POP POP JUMPDEST DUP1 DUP1 PUSH2 0xC46 SWAP1 PUSH2 0x2E12 JUMP JUMPDEST SWAP2 POP POP PUSH2 0xB61 JUMP JUMPDEST POP PUSH1 0x0 DUP2 PUSH8 0xFFFFFFFFFFFFFFFF DUP2 GT ISZERO PUSH2 0xC6B JUMPI PUSH2 0xC6A PUSH2 0x2F46 JUMP JUMPDEST JUMPDEST PUSH1 0x40 MLOAD SWAP1 DUP1 DUP3 MSTORE DUP1 PUSH1 0x20 MUL PUSH1 0x20 ADD DUP3 ADD PUSH1 0x40 MSTORE DUP1 ISZERO PUSH2 0xC99 JUMPI DUP2 PUSH1 0x20 ADD PUSH1 0x20 DUP3 MUL DUP1 CALLDATASIZE DUP4 CALLDATACOPY DUP1 DUP3 ADD SWAP2 POP POP SWAP1 POP JUMPDEST POP SWAP1 POP PUSH1 0x0 JUMPDEST DUP3 DUP2 LT ISZERO PUSH2 0xCF4 JUMPI DUP4 DUP2 DUP2 MLOAD DUP2 LT PUSH2 0xCBA JUMPI PUSH2 0xCB9 PUSH2 0x2F17 JUMP JUMPDEST JUMPDEST PUSH1 0x20 MUL PUSH1 0x20 ADD ADD MLOAD DUP3 DUP3 DUP2 MLOAD DUP2 LT PUSH2 0xCD5 JUMPI PUSH2 0xCD4 PUSH2 0x2F17 JUMP JUMPDEST JUMPDEST PUSH1 0x20 MUL PUSH1 0x20 ADD ADD DUP2 DUP2 MSTORE POP POP DUP1 DUP1 PUSH2 0xCEC SWAP1 PUSH2 0x2E12 JUMP JUMPDEST SWAP2 POP POP PUSH2 0xC9F JUMP JUMPDEST POP DUP1 SWAP4 POP POP POP POP SWAP2 SWAP1 POP JUMP JUMPDEST PUSH1 0x0 DUP1 PUSH1 0x2 DUP4 DUP2 SLOAD DUP2 LT PUSH2 0xD17 JUMPI PUSH2 0xD16 PUSH2 0x2F17 JUMP JUMPDEST JUMPDEST SWAP1 PUSH1 0x0 MSTORE PUSH1 0x20 PUSH1 0x0 KECCAK256 SWAP1 PUSH1 0x7 MUL ADD PUSH1 0x2 ADD SLOAD TIMESTAMP PUSH2 0xD34 SWAP2 SWAP1 PUSH2 0x2CCC JUMP JUMPDEST SWAP1 POP PUSH1 0x0 PUSH1 0x6 SLOAD DUP3 PUSH2 0xD46 SWAP2 SWAP1 PUSH2 0x2C41 JUMP JUMPDEST PUSH1 0x2 DUP6 DUP2 SLOAD DUP2 LT PUSH2 0xD5A JUMPI PUSH2 0xD59 PUSH2 0x2F17 JUMP JUMPDEST JUMPDEST SWAP1 PUSH1 0x0 MSTORE PUSH1 0x20 PUSH1 0x0 KECCAK256 SWAP1 PUSH1 0x7 MUL ADD PUSH1 0x1 ADD SLOAD PUSH2 0xD76 SWAP2 SWAP1 PUSH2 0x2CCC JUMP JUMPDEST GT ISZERO PUSH2 0xDC2 JUMPI PUSH1 0x6 SLOAD DUP2 PUSH2 0xD8A SWAP2 SWAP1 PUSH2 0x2C41 JUMP JUMPDEST PUSH1 0x2 DUP5 DUP2 SLOAD DUP2 LT PUSH2 0xD9E JUMPI PUSH2 0xD9D PUSH2 0x2F17 JUMP JUMPDEST JUMPDEST SWAP1 PUSH1 0x0 MSTORE PUSH1 0x20 PUSH1 0x0 KECCAK256 SWAP1 PUSH1 0x7 MUL ADD PUSH1 0x1 ADD SLOAD PUSH2 0xDBA SWAP2 SWAP1 PUSH2 0x2CCC JUMP JUMPDEST SWAP2 POP POP PUSH2 0xDC8 JUMP JUMPDEST PUSH1 0x0 SWAP2 POP POP JUMPDEST SWAP2 SWAP1 POP JUMP JUMPDEST PUSH1 0x0 PUSH2 0xDD8 CALLER PUSH2 0xB05 JUMP JUMPDEST SWAP1 POP PUSH1 0x0 DUP2 MLOAD GT PUSH2 0xE1E JUMPI PUSH1 0x40 MLOAD PUSH32 0x8C379A000000000000000000000000000000000000000000000000000000000 DUP2 MSTORE PUSH1 0x4 ADD PUSH2 0xE15 SWAP1 PUSH2 0x2940 JUMP JUMPDEST PUSH1 0x40 MLOAD DUP1 SWAP2 SUB SWAP1 REVERT JUMPDEST PUSH1 0x0 PUSH2 0xE29 DUP4 PUSH2 0x1875 JUMP JUMPDEST SWAP1 POP DUP2 MLOAD DUP2 MLOAD LT ISZERO PUSH2 0xE70 JUMPI PUSH1 0x40 MLOAD PUSH32 0x8C379A000000000000000000000000000000000000000000000000000000000 DUP2 MSTORE PUSH1 0x4 ADD PUSH2 0xE67 SWAP1 PUSH2 0x2960 JUMP JUMPDEST PUSH1 0x40 MLOAD DUP1 SWAP2 SUB SWAP1 REVERT JUMPDEST PUSH1 0x0 JUMPDEST DUP3 MLOAD DUP2 LT ISZERO PUSH2 0xFBA JUMPI PUSH1 0x0 PUSH1 0x2 DUP5 DUP4 DUP2 MLOAD DUP2 LT PUSH2 0xE93 JUMPI PUSH2 0xE92 PUSH2 0x2F17 JUMP JUMPDEST JUMPDEST PUSH1 0x20 MUL PUSH1 0x20 ADD ADD MLOAD DUP2 SLOAD DUP2 LT PUSH2 0xEAC JUMPI PUSH2 0xEAB PUSH2 0x2F17 JUMP JUMPDEST JUMPDEST SWAP1 PUSH1 0x0 MSTORE PUSH1 0x20 PUSH1 0x0 KECCAK256 SWAP1 PUSH1 0x7 MUL ADD PUSH1 0x3 ADD PUSH1 0x0 PUSH2 0x100 EXP DUP2 SLOAD DUP2 PUSH1 0xFF MUL NOT AND SWAP1 DUP4 PUSH1 0x3 DUP2 GT ISZERO PUSH2 0xEDF JUMPI PUSH2 0xEDE PUSH2 0x2EB9 JUMP JUMPDEST JUMPDEST MUL OR SWAP1 SSTORE POP DUP4 PUSH1 0x2 DUP5 DUP4 DUP2 MLOAD DUP2 LT PUSH2 0xEFA JUMPI PUSH2 0xEF9 PUSH2 0x2F17 JUMP JUMPDEST JUMPDEST PUSH1 0x20 MUL PUSH1 0x20 ADD ADD MLOAD DUP2 SLOAD DUP2 LT PUSH2 0xF13 JUMPI PUSH2 0xF12 PUSH2 0x2F17 JUMP JUMPDEST JUMPDEST SWAP1 PUSH1 0x0 MSTORE PUSH1 0x20 PUSH1 0x0 KECCAK256 SWAP1 PUSH1 0x7 MUL ADD PUSH1 0x4 ADD DUP2 SWAP1 SSTORE POP PUSH1 0x0 PUSH1 0x2 DUP5 DUP4 DUP2 MLOAD DUP2 LT PUSH2 0xF3F JUMPI PUSH2 0xF3E PUSH2 0x2F17 JUMP JUMPDEST JUMPDEST PUSH1 0x20 MUL PUSH1 0x20 ADD ADD MLOAD DUP2 SLOAD DUP2 LT PUSH2 0xF58 JUMPI PUSH2 0xF57 PUSH2 0x2F17 JUMP JUMPDEST JUMPDEST SWAP1 PUSH1 0x0 MSTORE PUSH1 0x20 PUSH1 0x0 KECCAK256 SWAP1 PUSH1 0x7 MUL ADD PUSH1 0x5 ADD PUSH1 0x0 PUSH2 0x100 EXP DUP2 SLOAD DUP2 PUSH20 0xFFFFFFFFFFFFFFFFFFFFFFFFFFFFFFFFFFFFFFFF MUL NOT AND SWAP1 DUP4 PUSH20 0xFFFFFFFFFFFFFFFFFFFFFFFFFFFFFFFFFFFFFFFF AND MUL OR SWAP1 SSTORE POP DUP1 DUP1 PUSH2 0xFB2 SWAP1 PUSH2 0x2E12 JUMP JUMPDEST SWAP2 POP POP PUSH2 0xE73 JUMP JUMPDEST POP PUSH1 0x0 JUMPDEST DUP3 MLOAD DUP2 LT ISZERO PUSH2 0x10C0 JUMPI PUSH1 0x1 PUSH1 0x2 DUP4 DUP4 DUP2 MLOAD DUP2 LT PUSH2 0xFDE JUMPI PUSH2 0xFDD PUSH2 0x2F17 JUMP JUMPDEST JUMPDEST PUSH1 0x20 MUL PUSH1 0x20 ADD ADD MLOAD DUP2 SLOAD DUP2 LT PUSH2 0xFF7 JUMPI PUSH2 0xFF6 PUSH2 0x2F17 JUMP JUMPDEST JUMPDEST SWAP1 PUSH1 0x0 MSTORE PUSH1 0x20 PUSH1 0x0 KECCAK256 SWAP1 PUSH1 0x7 MUL ADD PUSH1 0x3 ADD PUSH1 0x0 PUSH2 0x100 EXP DUP2 SLOAD DUP2 PUSH1 0xFF MUL NOT AND SWAP1 DUP4 PUSH1 0x3 DUP2 GT ISZERO PUSH2 0x102A JUMPI PUSH2 0x1029 PUSH2 0x2EB9 JUMP JUMPDEST JUMPDEST MUL OR SWAP1 SSTORE POP CALLER PUSH1 0x2 DUP4 DUP4 DUP2 MLOAD DUP2 LT PUSH2 0x1045 JUMPI PUSH2 0x1044 PUSH2 0x2F17 JUMP JUMPDEST JUMPDEST PUSH1 0x20 MUL PUSH1 0x20 ADD ADD MLOAD DUP2 SLOAD DUP2 LT PUSH2 0x105E JUMPI PUSH2 0x105D PUSH2 0x2F17 JUMP JUMPDEST JUMPDEST SWAP1 PUSH1 0x0 MSTORE PUSH1 0x20 PUSH1 0x0 KECCAK256 SWAP1 PUSH1 0x7 MUL ADD PUSH1 0x5 ADD PUSH1 0x0 PUSH2 0x100 EXP DUP2 SLOAD DUP2 PUSH20 0xFFFFFFFFFFFFFFFFFFFFFFFFFFFFFFFFFFFFFFFF MUL NOT AND SWAP1 DUP4 PUSH20 0xFFFFFFFFFFFFFFFFFFFFFFFFFFFFFFFFFFFFFFFF AND MUL OR SWAP1 SSTORE POP DUP1 DUP1 PUSH2 0x10B8 SWAP1 PUSH2 0x2E12 JUMP JUMPDEST SWAP2 POP POP PUSH2 0xFBE JUMP JUMPDEST POP POP POP POP JUMP JUMPDEST PUSH1 0x7 SLOAD DUP2 JUMP JUMPDEST PUSH1 0x2 DUP2 DUP2 SLOAD DUP2 LT PUSH2 0x10DC JUMPI PUSH1 0x0 DUP1 REVERT JUMPDEST SWAP1 PUSH1 0x0 MSTORE PUSH1 0x20 PUSH1 0x0 KECCAK256 SWAP1 PUSH1 0x7 MUL ADD PUSH1 0x0 SWAP2 POP SWAP1 POP DUP1 PUSH1 0x0 ADD SLOAD SWAP1 DUP1 PUSH1 0x1 ADD SLOAD SWAP1 DUP1 PUSH1 0x2 ADD SLOAD SWAP1 DUP1 PUSH1 0x3 ADD PUSH1 0x0 SWAP1 SLOAD SWAP1 PUSH2 0x100 EXP SWAP1 DIV PUSH1 0xFF AND SWAP1 DUP1 PUSH1 0x4 ADD SLOAD SWAP1 DUP1 PUSH1 0x5 ADD PUSH1 0x0 SWAP1 SLOAD SWAP1 PUSH2 0x100 EXP SWAP1 DIV PUSH20 0xFFFFFFFFFFFFFFFFFFFFFFFFFFFFFFFFFFFFFFFF AND SWAP1 DUP1 PUSH1 0x6 ADD DUP1 SLOAD PUSH2 0x1150 SWAP1 PUSH2 0x2DAF JUMP JUMPDEST DUP1 PUSH1 0x1F ADD PUSH1 0x20 DUP1 SWAP2 DIV MUL PUSH1 0x20 ADD PUSH1 0x40 MLOAD SWAP1 DUP2 ADD PUSH1 0x40 MSTORE DUP1 SWAP3 SWAP2 SWAP1 DUP2 DUP2 MSTORE PUSH1 0x20 ADD DUP3 DUP1 SLOAD PUSH2 0x117C SWAP1 PUSH2 0x2DAF JUMP JUMPDEST DUP1 ISZERO PUSH2 0x11C9 JUMPI DUP1 PUSH1 0x1F LT PUSH2 0x119E JUMPI PUSH2 0x100 DUP1 DUP4 SLOAD DIV MUL DUP4 MSTORE SWAP2 PUSH1 0x20 ADD SWAP2 PUSH2 0x11C9 JUMP JUMPDEST DUP3 ADD SWAP2 SWAP1 PUSH1 0x0 MSTORE PUSH1 0x20 PUSH1 0x0 KECCAK256 SWAP1 JUMPDEST DUP2 SLOAD DUP2 MSTORE SWAP1 PUSH1 0x1 ADD SWAP1 PUSH1 0x20 ADD DUP1 DUP4 GT PUSH2 0x11AC JUMPI DUP3 SWAP1 SUB PUSH1 0x1F AND DUP3 ADD SWAP2 JUMPDEST POP POP POP POP POP SWAP1 POP DUP8 JUMP JUMPDEST PUSH1 0x0 DUP1 PUSH2 0x11DF DUP4 PUSH2 0xB05 JUMP JUMPDEST SWAP1 POP PUSH1 0x0 DUP1 JUMPDEST DUP3 MLOAD DUP2 LT ISZERO PUSH2 0x124A JUMPI PUSH1 0x7 SLOAD PUSH2 0x1214 DUP5 DUP4 DUP2 MLOAD DUP2 LT PUSH2 0x1207 JUMPI PUSH2 0x1206 PUSH2 0x2F17 JUMP JUMPDEST JUMPDEST PUSH1 0x20 MUL PUSH1 0x20 ADD ADD MLOAD PUSH2 0xD00 JUMP JUMPDEST PUSH1 0x64 PUSH2 0x1220 SWAP2 SWAP1 PUSH2 0x2CCC JUMP JUMPDEST PUSH2 0x122A SWAP2 SWAP1 PUSH2 0x2C72 JUMP JUMPDEST DUP3 PUSH2 0x1235 SWAP2 SWAP1 PUSH2 0x2BEB JUMP JUMPDEST SWAP2 POP DUP1 DUP1 PUSH2 0x1242 SWAP1 PUSH2 0x2E12 JUMP JUMPDEST SWAP2 POP POP PUSH2 0x11E5 JUMP JUMPDEST POP DUP1 SWAP3 POP POP POP SWAP2 SWAP1 POP JUMP JUMPDEST DUP1 PUSH1 0x7 DUP2 SWAP1 SSTORE POP POP JUMP JUMPDEST PUSH2 0x1267 PUSH2 0x1F85 JUMP JUMPDEST PUSH1 0x2 DUP3 DUP2 SLOAD DUP2 LT PUSH2 0x127B JUMPI PUSH2 0x127A PUSH2 0x2F17 JUMP JUMPDEST JUMPDEST SWAP1 PUSH1 0x0 MSTORE PUSH1 0x20 PUSH1 0x0 KECCAK256 SWAP1 PUSH1 0x7 MUL ADD PUSH1 0x40 MLOAD DUP1 PUSH1 0xE0 ADD PUSH1 0x40 MSTORE SWAP1 DUP2 PUSH1 0x0 DUP3 ADD SLOAD DUP2 MSTORE PUSH1 0x20 ADD PUSH1 0x1 DUP3 ADD SLOAD DUP2 MSTORE PUSH1 0x20 ADD PUSH1 0x2 DUP3 ADD SLOAD DUP2 MSTORE PUSH1 0x20 ADD PUSH1 0x3 DUP3 ADD PUSH1 0x0 SWAP1 SLOAD SWAP1 PUSH2 0x100 EXP SWAP1 DIV PUSH1 0xFF AND PUSH1 0x3 DUP2 GT ISZERO PUSH2 0x12D7 JUMPI PUSH2 0x12D6 PUSH2 0x2EB9 JUMP JUMPDEST JUMPDEST PUSH1 0x3 DUP2 GT ISZERO PUSH2 0x12E9 JUMPI PUSH2 0x12E8 PUSH2 0x2EB9 JUMP JUMPDEST JUMPDEST DUP2 MSTORE PUSH1 0x20 ADD PUSH1 0x4 DUP3 ADD SLOAD DUP2 MSTORE PUSH1 0x20 ADD PUSH1 0x5 DUP3 ADD PUSH1 0x0 SWAP1 SLOAD SWAP1 PUSH2 0x100 EXP SWAP1 DIV PUSH20 0xFFFFFFFFFFFFFFFFFFFFFFFFFFFFFFFFFFFFFFFF AND PUSH20 0xFFFFFFFFFFFFFFFFFFFFFFFFFFFFFFFFFFFFFFFF AND PUSH20 0xFFFFFFFFFFFFFFFFFFFFFFFFFFFFFFFFFFFFFFFF AND DUP2 MSTORE PUSH1 0x20 ADD PUSH1 0x6 DUP3 ADD DUP1 SLOAD PUSH2 0x135D SWAP1 PUSH2 0x2DAF JUMP JUMPDEST DUP1 PUSH1 0x1F ADD PUSH1 0x20 DUP1 SWAP2 DIV MUL PUSH1 0x20 ADD PUSH1 0x40 MLOAD SWAP1 DUP2 ADD PUSH1 0x40 MSTORE DUP1 SWAP3 SWAP2 SWAP1 DUP2 DUP2 MSTORE PUSH1 0x20 ADD DUP3 DUP1 SLOAD PUSH2 0x1389 SWAP1 PUSH2 0x2DAF JUMP JUMPDEST DUP1 ISZERO PUSH2 0x13D6 JUMPI DUP1 PUSH1 0x1F LT PUSH2 0x13AB JUMPI PUSH2 0x100 DUP1 DUP4 SLOAD DIV MUL DUP4 MSTORE SWAP2 PUSH1 0x20 ADD SWAP2 PUSH2 0x13D6 JUMP JUMPDEST DUP3 ADD SWAP2 SWAP1 PUSH1 0x0 MSTORE PUSH1 0x20 PUSH1 0x0 KECCAK256 SWAP1 JUMPDEST DUP2 SLOAD DUP2 MSTORE SWAP1 PUSH1 0x1 ADD SWAP1 PUSH1 0x20 ADD DUP1 DUP4 GT PUSH2 0x13B9 JUMPI DUP3 SWAP1 SUB PUSH1 0x1F AND DUP3 ADD SWAP2 JUMPDEST POP POP POP POP POP DUP2 MSTORE POP POP SWAP1 POP SWAP2 SWAP1 POP JUMP JUMPDEST PUSH1 0x0 PUSH2 0x13F2 PUSH1 0x1 PUSH2 0x1F27 JUMP JUMPDEST SWAP1 POP PUSH1 0x0 PUSH1 0x40 MLOAD DUP1 PUSH1 0xC0 ADD PUSH1 0x40 MSTORE DUP1 DUP4 DUP2 MSTORE PUSH1 0x20 ADD DUP9 DUP2 MSTORE PUSH1 0x20 ADD DUP8 DUP2 MSTORE PUSH1 0x20 ADD DUP7 DUP2 MSTORE PUSH1 0x20 ADD DUP6 ISZERO ISZERO DUP2 MSTORE PUSH1 0x20 ADD DUP5 ISZERO ISZERO DUP2 MSTORE POP SWAP1 POP PUSH1 0x0 DUP2 SWAP1 DUP1 PUSH1 0x1 DUP2 SLOAD ADD DUP1 DUP3 SSTORE DUP1 SWAP2 POP POP PUSH1 0x1 SWAP1 SUB SWAP1 PUSH1 0x0 MSTORE PUSH1 0x20 PUSH1 0x0 KECCAK256 SWAP1 PUSH1 0x5 MUL ADD PUSH1 0x0 SWAP1 SWAP2 SWAP1 SWAP2 SWAP1 SWAP2 POP PUSH1 0x0 DUP3 ADD MLOAD DUP2 PUSH1 0x0 ADD SSTORE PUSH1 0x20 DUP3 ADD MLOAD DUP2 PUSH1 0x1 ADD SWAP1 DUP1 MLOAD SWAP1 PUSH1 0x20 ADD SWAP1 PUSH2 0x147B SWAP3 SWAP2 SWAP1 PUSH2 0x1FEA JUMP JUMPDEST POP PUSH1 0x40 DUP3 ADD MLOAD DUP2 PUSH1 0x2 ADD SWAP1 DUP1 MLOAD SWAP1 PUSH1 0x20 ADD SWAP1 PUSH2 0x1498 SWAP3 SWAP2 SWAP1 PUSH2 0x1FEA JUMP JUMPDEST POP PUSH1 0x60 DUP3 ADD MLOAD DUP2 PUSH1 0x3 ADD SWAP1 DUP1 MLOAD SWAP1 PUSH1 0x20 ADD SWAP1 PUSH2 0x14B5 SWAP3 SWAP2 SWAP1 PUSH2 0x1FEA JUMP JUMPDEST POP PUSH1 0x80 DUP3 ADD MLOAD DUP2 PUSH1 0x4 ADD PUSH1 0x0 PUSH2 0x100 EXP DUP2 SLOAD DUP2 PUSH1 0xFF MUL NOT AND SWAP1 DUP4 ISZERO ISZERO MUL OR SWAP1 SSTORE POP PUSH1 0xA0 DUP3 ADD MLOAD DUP2 PUSH1 0x4 ADD PUSH1 0x1 PUSH2 0x100 EXP DUP2 SLOAD DUP2 PUSH1 0xFF MUL NOT AND SWAP1 DUP4 ISZERO ISZERO MUL OR SWAP1 SSTORE POP POP POP PUSH2 0x1502 PUSH1 0x1 PUSH2 0x1F35 JUMP JUMPDEST POP POP POP POP POP POP POP JUMP JUMPDEST PUSH1 0x0 DUP2 DUP2 SLOAD DUP2 LT PUSH2 0x151B JUMPI PUSH1 0x0 DUP1 REVERT JUMPDEST SWAP1 PUSH1 0x0 MSTORE PUSH1 0x20 PUSH1 0x0 KECCAK256 SWAP1 PUSH1 0x5 MUL ADD PUSH1 0x0 SWAP2 POP SWAP1 POP DUP1 PUSH1 0x0 ADD SLOAD SWAP1 DUP1 PUSH1 0x1 ADD DUP1 SLOAD PUSH2 0x1544 SWAP1 PUSH2 0x2DAF JUMP JUMPDEST DUP1 PUSH1 0x1F ADD PUSH1 0x20 DUP1 SWAP2 DIV MUL PUSH1 0x20 ADD PUSH1 0x40 MLOAD SWAP1 DUP2 ADD PUSH1 0x40 MSTORE DUP1 SWAP3 SWAP2 SWAP1 DUP2 DUP2 MSTORE PUSH1 0x20 ADD DUP3 DUP1 SLOAD PUSH2 0x1570 SWAP1 PUSH2 0x2DAF JUMP JUMPDEST DUP1 ISZERO PUSH2 0x15BD JUMPI DUP1 PUSH1 0x1F LT PUSH2 0x1592 JUMPI PUSH2 0x100 DUP1 DUP4 SLOAD DIV MUL DUP4 MSTORE SWAP2 PUSH1 0x20 ADD SWAP2 PUSH2 0x15BD JUMP JUMPDEST DUP3 ADD SWAP2 SWAP1 PUSH1 0x0 MSTORE PUSH1 0x20 PUSH1 0x0 KECCAK256 SWAP1 JUMPDEST DUP2 SLOAD DUP2 MSTORE SWAP1 PUSH1 0x1 ADD SWAP1 PUSH1 0x20 ADD DUP1 DUP4 GT PUSH2 0x15A0 JUMPI DUP3 SWAP1 SUB PUSH1 0x1F AND DUP3 ADD SWAP2 JUMPDEST POP POP POP POP POP SWAP1 DUP1 PUSH1 0x2 ADD DUP1 SLOAD PUSH2 0x15D2 SWAP1 PUSH2 0x2DAF JUMP JUMPDEST DUP1 PUSH1 0x1F ADD PUSH1 0x20 DUP1 SWAP2 DIV MUL PUSH1 0x20 ADD PUSH1 0x40 MLOAD SWAP1 DUP2 ADD PUSH1 0x40 MSTORE DUP1 SWAP3 SWAP2 SWAP1 DUP2 DUP2 MSTORE PUSH1 0x20 ADD DUP3 DUP1 SLOAD PUSH2 0x15FE SWAP1 PUSH2 0x2DAF JUMP JUMPDEST DUP1 ISZERO PUSH2 0x164B JUMPI DUP1 PUSH1 0x1F LT PUSH2 0x1620 JUMPI PUSH2 0x100 DUP1 DUP4 SLOAD DIV MUL DUP4 MSTORE SWAP2 PUSH1 0x20 ADD SWAP2 PUSH2 0x164B JUMP JUMPDEST DUP3 ADD SWAP2 SWAP1 PUSH1 0x0 MSTORE PUSH1 0x20 PUSH1 0x0 KECCAK256 SWAP1 JUMPDEST DUP2 SLOAD DUP2 MSTORE SWAP1 PUSH1 0x1 ADD SWAP1 PUSH1 0x20 ADD DUP1 DUP4 GT PUSH2 0x162E JUMPI DUP3 SWAP1 SUB PUSH1 0x1F AND DUP3 ADD SWAP2 JUMPDEST POP POP POP POP POP SWAP1 DUP1 PUSH1 0x3 ADD DUP1 SLOAD PUSH2 0x1660 SWAP1 PUSH2 0x2DAF JUMP JUMPDEST DUP1 PUSH1 0x1F ADD PUSH1 0x20 DUP1 SWAP2 DIV MUL PUSH1 0x20 ADD PUSH1 0x40 MLOAD SWAP1 DUP2 ADD PUSH1 0x40 MSTORE DUP1 SWAP3 SWAP2 SWAP1 DUP2 DUP2 MSTORE PUSH1 0x20 ADD DUP3 DUP1 SLOAD PUSH2 0x168C SWAP1 PUSH2 0x2DAF JUMP JUMPDEST DUP1 ISZERO PUSH2 0x16D9 JUMPI DUP1 PUSH1 0x1F LT PUSH2 0x16AE JUMPI PUSH2 0x100 DUP1 DUP4 SLOAD DIV MUL DUP4 MSTORE SWAP2 PUSH1 0x20 ADD SWAP2 PUSH2 0x16D9 JUMP JUMPDEST DUP3 ADD SWAP2 SWAP1 PUSH1 0x0 MSTORE PUSH1 0x20 PUSH1 0x0 KECCAK256 SWAP1 JUMPDEST DUP2 SLOAD DUP2 MSTORE SWAP1 PUSH1 0x1 ADD SWAP1 PUSH1 0x20 ADD DUP1 DUP4 GT PUSH2 0x16BC JUMPI DUP3 SWAP1 SUB PUSH1 0x1F AND DUP3 ADD SWAP2 JUMPDEST POP POP POP POP POP SWAP1 DUP1 PUSH1 0x4 ADD PUSH1 0x0 SWAP1 SLOAD SWAP1 PUSH2 0x100 EXP SWAP1 DIV PUSH1 0xFF AND SWAP1 DUP1 PUSH1 0x4 ADD PUSH1 0x1 SWAP1 SLOAD SWAP1 PUSH2 0x100 EXP SWAP1 DIV PUSH1 0xFF AND SWAP1 POP DUP7 JUMP JUMPDEST PUSH1 0x4 DUP2 DUP1 MLOAD PUSH1 0x20 DUP2 ADD DUP3 ADD DUP1 MLOAD DUP5 DUP3 MSTORE PUSH1 0x20 DUP4 ADD PUSH1 0x20 DUP6 ADD KECCAK256 DUP2 DUP4 MSTORE DUP1 SWAP6 POP POP POP POP POP POP PUSH1 0x0 SWAP2 POP SWAP1 POP SLOAD DUP2 JUMP JUMPDEST PUSH1 0x5 PUSH1 0x20 MSTORE DUP1 PUSH1 0x0 MSTORE PUSH1 0x40 PUSH1 0x0 KECCAK256 PUSH1 0x0 SWAP2 POP SWAP1 POP SLOAD DUP2 JUMP JUMPDEST PUSH1 0x0 PUSH1 0x1 PUSH1 0x3 DUP2 GT ISZERO PUSH2 0x1765 JUMPI PUSH2 0x1764 PUSH2 0x2EB9 JUMP JUMPDEST JUMPDEST PUSH2 0x176E DUP4 PUSH2 0x874 JUMP JUMPDEST PUSH1 0x3 DUP2 GT ISZERO PUSH2 0x1780 JUMPI PUSH2 0x177F PUSH2 0x2EB9 JUMP JUMPDEST JUMPDEST EQ PUSH2 0x17C0 JUMPI PUSH1 0x40 MLOAD PUSH32 0x8C379A000000000000000000000000000000000000000000000000000000000 DUP2 MSTORE PUSH1 0x4 ADD PUSH2 0x17B7 SWAP1 PUSH2 0x2980 JUMP JUMPDEST PUSH1 0x40 MLOAD DUP1 SWAP2 SUB SWAP1 REVERT JUMPDEST PUSH1 0x2 DUP3 DUP2 SLOAD DUP2 LT PUSH2 0x17D4 JUMPI PUSH2 0x17D3 PUSH2 0x2F17 JUMP JUMPDEST JUMPDEST SWAP1 PUSH1 0x0 MSTORE PUSH1 0x20 PUSH1 0x0 KECCAK256 SWAP1 PUSH1 0x7 MUL ADD PUSH1 0x5 ADD PUSH1 0x0 SWAP1 SLOAD SWAP1 PUSH2 0x100 EXP SWAP1 DIV PUSH20 0xFFFFFFFFFFFFFFFFFFFFFFFFFFFFFFFFFFFFFFFF AND SWAP1 POP SWAP2 SWAP1 POP JUMP JUMPDEST PUSH1 0x0 PUSH1 0x8 SLOAD PUSH1 0x5 PUSH1 0x0 DUP5 PUSH20 0xFFFFFFFFFFFFFFFFFFFFFFFFFFFFFFFFFFFFFFFF AND PUSH20 0xFFFFFFFFFFFFFFFFFFFFFFFFFFFFFFFFFFFFFFFF AND DUP2 MSTORE PUSH1 0x20 ADD SWAP1 DUP2 MSTORE PUSH1 0x20 ADD PUSH1 0x0 KECCAK256 SLOAD TIMESTAMP PUSH2 0x185D SWAP2 SWAP1 PUSH2 0x2CCC JUMP JUMPDEST GT PUSH2 0x186B JUMPI PUSH1 0x1 SWAP1 POP PUSH2 0x1870 JUMP JUMPDEST PUSH1 0x0 SWAP1 POP JUMPDEST SWAP2 SWAP1 POP JUMP JUMPDEST PUSH1 0x60 PUSH1 0x0 PUSH2 0x1883 PUSH1 0x3 PUSH2 0x1F27 JUMP JUMPDEST PUSH8 0xFFFFFFFFFFFFFFFF DUP2 GT ISZERO PUSH2 0x189C JUMPI PUSH2 0x189B PUSH2 0x2F46 JUMP JUMPDEST JUMPDEST PUSH1 0x40 MLOAD SWAP1 DUP1 DUP3 MSTORE DUP1 PUSH1 0x20 MUL PUSH1 0x20 ADD DUP3 ADD PUSH1 0x40 MSTORE DUP1 ISZERO PUSH2 0x18CA JUMPI DUP2 PUSH1 0x20 ADD PUSH1 0x20 DUP3 MUL DUP1 CALLDATASIZE DUP4 CALLDATACOPY DUP1 DUP3 ADD SWAP2 POP POP SWAP1 POP JUMPDEST POP SWAP1 POP PUSH1 0x0 DUP1 JUMPDEST PUSH1 0x2 DUP1 SLOAD SWAP1 POP DUP2 LT ISZERO PUSH2 0x19D4 JUMPI DUP5 PUSH1 0x2 DUP3 DUP2 SLOAD DUP2 LT PUSH2 0x18F3 JUMPI PUSH2 0x18F2 PUSH2 0x2F17 JUMP JUMPDEST JUMPDEST SWAP1 PUSH1 0x0 MSTORE PUSH1 0x20 PUSH1 0x0 KECCAK256 SWAP1 PUSH1 0x7 MUL ADD PUSH1 0x4 ADD SLOAD EQ DUP1 ISZERO PUSH2 0x1968 JUMPI POP PUSH1 0x0 PUSH1 0x3 DUP2 GT ISZERO PUSH2 0x1921 JUMPI PUSH2 0x1920 PUSH2 0x2EB9 JUMP JUMPDEST JUMPDEST PUSH1 0x2 DUP3 DUP2 SLOAD DUP2 LT PUSH2 0x1935 JUMPI PUSH2 0x1934 PUSH2 0x2F17 JUMP JUMPDEST JUMPDEST SWAP1 PUSH1 0x0 MSTORE PUSH1 0x20 PUSH1 0x0 KECCAK256 SWAP1 PUSH1 0x7 MUL ADD PUSH1 0x3 ADD PUSH1 0x0 SWAP1 SLOAD SWAP1 PUSH2 0x100 EXP SWAP1 DIV PUSH1 0xFF AND PUSH1 0x3 DUP2 GT ISZERO PUSH2 0x1966 JUMPI PUSH2 0x1965 PUSH2 0x2EB9 JUMP JUMPDEST JUMPDEST EQ JUMPDEST ISZERO PUSH2 0x19C1 JUMPI PUSH1 0x2 DUP2 DUP2 SLOAD DUP2 LT PUSH2 0x1981 JUMPI PUSH2 0x1980 PUSH2 0x2F17 JUMP JUMPDEST JUMPDEST SWAP1 PUSH1 0x0 MSTORE PUSH1 0x20 PUSH1 0x0 KECCAK256 SWAP1 PUSH1 0x7 MUL ADD PUSH1 0x0 ADD SLOAD DUP4 DUP4 DUP2 MLOAD DUP2 LT PUSH2 0x19A6 JUMPI PUSH2 0x19A5 PUSH2 0x2F17 JUMP JUMPDEST JUMPDEST PUSH1 0x20 MUL PUSH1 0x20 ADD ADD DUP2 DUP2 MSTORE POP POP DUP2 DUP1 PUSH2 0x19BD SWAP1 PUSH2 0x2E12 JUMP JUMPDEST SWAP3 POP POP JUMPDEST DUP1 DUP1 PUSH2 0x19CC SWAP1 PUSH2 0x2E12 JUMP JUMPDEST SWAP2 POP POP PUSH2 0x18D1 JUMP JUMPDEST POP PUSH1 0x0 DUP2 PUSH8 0xFFFFFFFFFFFFFFFF DUP2 GT ISZERO PUSH2 0x19F1 JUMPI PUSH2 0x19F0 PUSH2 0x2F46 JUMP JUMPDEST JUMPDEST PUSH1 0x40 MLOAD SWAP1 DUP1 DUP3 MSTORE DUP1 PUSH1 0x20 MUL PUSH1 0x20 ADD DUP3 ADD PUSH1 0x40 MSTORE DUP1 ISZERO PUSH2 0x1A1F JUMPI DUP2 PUSH1 0x20 ADD PUSH1 0x20 DUP3 MUL DUP1 CALLDATASIZE DUP4 CALLDATACOPY DUP1 DUP3 ADD SWAP2 POP POP SWAP1 POP JUMPDEST POP SWAP1 POP PUSH1 0x0 JUMPDEST DUP3 DUP2 LT ISZERO PUSH2 0x1A7A JUMPI DUP4 DUP2 DUP2 MLOAD DUP2 LT PUSH2 0x1A40 JUMPI PUSH2 0x1A3F PUSH2 0x2F17 JUMP JUMPDEST JUMPDEST PUSH1 0x20 MUL PUSH1 0x20 ADD ADD MLOAD DUP3 DUP3 DUP2 MLOAD DUP2 LT PUSH2 0x1A5B JUMPI PUSH2 0x1A5A PUSH2 0x2F17 JUMP JUMPDEST JUMPDEST PUSH1 0x20 MUL PUSH1 0x20 ADD ADD DUP2 DUP2 MSTORE POP POP DUP1 DUP1 PUSH2 0x1A72 SWAP1 PUSH2 0x2E12 JUMP JUMPDEST SWAP2 POP POP PUSH2 0x1A25 JUMP JUMPDEST POP DUP1 SWAP4 POP POP POP POP SWAP2 SWAP1 POP JUMP JUMPDEST PUSH1 0x0 DUP1 PUSH1 0x3 DUP2 GT ISZERO PUSH2 0x1A9B JUMPI PUSH2 0x1A9A PUSH2 0x2EB9 JUMP JUMPDEST JUMPDEST PUSH2 0x1AA4 DUP4 PUSH2 0x874 JUMP JUMPDEST PUSH1 0x3 DUP2 GT ISZERO PUSH2 0x1AB6 JUMPI PUSH2 0x1AB5 PUSH2 0x2EB9 JUMP JUMPDEST JUMPDEST EQ PUSH2 0x1AF6 JUMPI PUSH1 0x40 MLOAD PUSH32 0x8C379A000000000000000000000000000000000000000000000000000000000 DUP2 MSTORE PUSH1 0x4 ADD PUSH2 0x1AED SWAP1 PUSH2 0x2920 JUMP JUMPDEST PUSH1 0x40 MLOAD DUP1 SWAP2 SUB SWAP1 REVERT JUMPDEST PUSH1 0x2 DUP3 DUP2 SLOAD DUP2 LT PUSH2 0x1B0A JUMPI PUSH2 0x1B09 PUSH2 0x2F17 JUMP JUMPDEST JUMPDEST SWAP1 PUSH1 0x0 MSTORE PUSH1 0x20 PUSH1 0x0 KECCAK256 SWAP1 PUSH1 0x7 MUL ADD PUSH1 0x4 ADD SLOAD SWAP1 POP SWAP2 SWAP1 POP JUMP JUMPDEST TIMESTAMP PUSH1 0x5 PUSH1 0x0 DUP4 PUSH20 0xFFFFFFFFFFFFFFFFFFFFFFFFFFFFFFFFFFFFFFFF AND PUSH20 0xFFFFFFFFFFFFFFFFFFFFFFFFFFFFFFFFFFFFFFFF AND DUP2 MSTORE PUSH1 0x20 ADD SWAP1 DUP2 MSTORE PUSH1 0x20 ADD PUSH1 0x0 KECCAK256 DUP2 SWAP1 SSTORE POP POP JUMP JUMPDEST PUSH1 0x0 PUSH2 0x1B76 PUSH1 0x3 PUSH2 0x1F27 JUMP JUMPDEST SWAP1 POP PUSH1 0x0 PUSH1 0x40 MLOAD DUP1 PUSH1 0xE0 ADD PUSH1 0x40 MSTORE DUP1 DUP4 DUP2 MSTORE PUSH1 0x20 ADD PUSH1 0x64 DUP2 MSTORE PUSH1 0x20 ADD TIMESTAMP DUP2 MSTORE PUSH1 0x20 ADD PUSH1 0x0 PUSH1 0x3 DUP2 GT ISZERO PUSH2 0x1BAC JUMPI PUSH2 0x1BAB PUSH2 0x2EB9 JUMP JUMPDEST JUMPDEST DUP2 MSTORE PUSH1 0x20 ADD DUP7 DUP2 MSTORE PUSH1 0x20 ADD PUSH1 0x0 PUSH20 0xFFFFFFFFFFFFFFFFFFFFFFFFFFFFFFFFFFFFFFFF AND DUP2 MSTORE PUSH1 0x20 ADD DUP6 DUP2 MSTORE POP SWAP1 POP PUSH1 0x2 DUP2 SWAP1 DUP1 PUSH1 0x1 DUP2 SLOAD ADD DUP1 DUP3 SSTORE DUP1 SWAP2 POP POP PUSH1 0x1 SWAP1 SUB SWAP1 PUSH1 0x0 MSTORE PUSH1 0x20 PUSH1 0x0 KECCAK256 SWAP1 PUSH1 0x7 MUL ADD PUSH1 0x0 SWAP1 SWAP2 SWAP1 SWAP2 SWAP1 SWAP2 POP PUSH1 0x0 DUP3 ADD MLOAD DUP2 PUSH1 0x0 ADD SSTORE PUSH1 0x20 DUP3 ADD MLOAD DUP2 PUSH1 0x1 ADD SSTORE PUSH1 0x40 DUP3 ADD MLOAD DUP2 PUSH1 0x2 ADD SSTORE PUSH1 0x60 DUP3 ADD MLOAD DUP2 PUSH1 0x3 ADD PUSH1 0x0 PUSH2 0x100 EXP DUP2 SLOAD DUP2 PUSH1 0xFF MUL NOT AND SWAP1 DUP4 PUSH1 0x3 DUP2 GT ISZERO PUSH2 0x1C4F JUMPI PUSH2 0x1C4E PUSH2 0x2EB9 JUMP JUMPDEST JUMPDEST MUL OR SWAP1 SSTORE POP PUSH1 0x80 DUP3 ADD MLOAD DUP2 PUSH1 0x4 ADD SSTORE PUSH1 0xA0 DUP3 ADD MLOAD DUP2 PUSH1 0x5 ADD PUSH1 0x0 PUSH2 0x100 EXP DUP2 SLOAD DUP2 PUSH20 0xFFFFFFFFFFFFFFFFFFFFFFFFFFFFFFFFFFFFFFFF MUL NOT AND SWAP1 DUP4 PUSH20 0xFFFFFFFFFFFFFFFFFFFFFFFFFFFFFFFFFFFFFFFF AND MUL OR SWAP1 SSTORE POP PUSH1 0xC0 DUP3 ADD MLOAD DUP2 PUSH1 0x6 ADD SWAP1 DUP1 MLOAD SWAP1 PUSH1 0x20 ADD SWAP1 PUSH2 0x1CC1 SWAP3 SWAP2 SWAP1 PUSH2 0x1FEA JUMP JUMPDEST POP POP POP DUP2 PUSH1 0x4 DUP5 PUSH1 0x40 MLOAD PUSH2 0x1CD5 SWAP2 SWAP1 PUSH2 0x2874 JUMP JUMPDEST SWAP1 DUP2 MSTORE PUSH1 0x20 ADD PUSH1 0x40 MLOAD DUP1 SWAP2 SUB SWAP1 KECCAK256 DUP2 SWAP1 SSTORE POP PUSH2 0x1CF1 PUSH1 0x3 PUSH2 0x1F35 JUMP JUMPDEST POP POP POP POP POP JUMP JUMPDEST PUSH1 0x0 DUP2 DUP2 SLOAD DUP2 LT PUSH2 0x1D0C JUMPI PUSH2 0x1D0B PUSH2 0x2F17 JUMP JUMPDEST JUMPDEST SWAP1 PUSH1 0x0 MSTORE PUSH1 0x20 PUSH1 0x0 KECCAK256 SWAP1 PUSH1 0x5 MUL ADD PUSH1 0x4 ADD PUSH1 0x0 SWAP1 SLOAD SWAP1 PUSH2 0x100 EXP SWAP1 DIV PUSH1 0xFF AND ISZERO PUSH1 0x0 DUP3 DUP2 SLOAD DUP2 LT PUSH2 0x1D40 JUMPI PUSH2 0x1D3F PUSH2 0x2F17 JUMP JUMPDEST JUMPDEST SWAP1 PUSH1 0x0 MSTORE PUSH1 0x20 PUSH1 0x0 KECCAK256 SWAP1 PUSH1 0x5 MUL ADD PUSH1 0x4 ADD PUSH1 0x0 PUSH2 0x100 EXP DUP2 SLOAD DUP2 PUSH1 0xFF MUL NOT AND SWAP1 DUP4 ISZERO ISZERO MUL OR SWAP1 SSTORE POP POP JUMP JUMPDEST PUSH1 0x0 PUSH2 0x1D77 PUSH1 0x3 PUSH2 0x1F27 JUMP JUMPDEST SWAP1 POP PUSH1 0x0 PUSH1 0x40 MLOAD DUP1 PUSH1 0xE0 ADD PUSH1 0x40 MSTORE DUP1 DUP4 DUP2 MSTORE PUSH1 0x20 ADD PUSH1 0x64 DUP2 MSTORE PUSH1 0x20 ADD TIMESTAMP DUP2 MSTORE PUSH1 0x20 ADD PUSH1 0x1 PUSH1 0x3 DUP2 GT ISZERO PUSH2 0x1DAD JUMPI PUSH2 0x1DAC PUSH2 0x2EB9 JUMP JUMPDEST JUMPDEST DUP2 MSTORE PUSH1 0x20 ADD PUSH1 0x0 DUP2 MSTORE PUSH1 0x20 ADD DUP7 PUSH20 0xFFFFFFFFFFFFFFFFFFFFFFFFFFFFFFFFFFFFFFFF AND DUP2 MSTORE PUSH1 0x20 ADD DUP6 DUP2 MSTORE POP SWAP1 POP PUSH1 0x2 DUP2 SWAP1 DUP1 PUSH1 0x1 DUP2 SLOAD ADD DUP1 DUP3 SSTORE DUP1 SWAP2 POP POP PUSH1 0x1 SWAP1 SUB SWAP1 PUSH1 0x0 MSTORE PUSH1 0x20 PUSH1 0x0 KECCAK256 SWAP1 PUSH1 0x7 MUL ADD PUSH1 0x0 SWAP1 SWAP2 SWAP1 SWAP2 SWAP1 SWAP2 POP PUSH1 0x0 DUP3 ADD MLOAD DUP2 PUSH1 0x0 ADD SSTORE PUSH1 0x20 DUP3 ADD MLOAD DUP2 PUSH1 0x1 ADD SSTORE PUSH1 0x40 DUP3 ADD MLOAD DUP2 PUSH1 0x2 ADD SSTORE PUSH1 0x60 DUP3 ADD MLOAD DUP2 PUSH1 0x3 ADD PUSH1 0x0 PUSH2 0x100 EXP DUP2 SLOAD DUP2 PUSH1 0xFF MUL NOT AND SWAP1 DUP4 PUSH1 0x3 DUP2 GT ISZERO PUSH2 0x1E50 JUMPI PUSH2 0x1E4F PUSH2 0x2EB9 JUMP JUMPDEST JUMPDEST MUL OR SWAP1 SSTORE POP PUSH1 0x80 DUP3 ADD MLOAD DUP2 PUSH1 0x4 ADD SSTORE PUSH1 0xA0 DUP3 ADD MLOAD DUP2 PUSH1 0x5 ADD PUSH1 0x0 PUSH2 0x100 EXP DUP2 SLOAD DUP2 PUSH20 0xFFFFFFFFFFFFFFFFFFFFFFFFFFFFFFFFFFFFFFFF MUL NOT AND SWAP1 DUP4 PUSH20 0xFFFFFFFFFFFFFFFFFFFFFFFFFFFFFFFFFFFFFFFF AND MUL OR SWAP1 SSTORE POP PUSH1 0xC0 DUP3 ADD MLOAD DUP2 PUSH1 0x6 ADD SWAP1 DUP1 MLOAD SWAP1 PUSH1 0x20 ADD SWAP1 PUSH2 0x1EC2 SWAP3 SWAP2 SWAP1 PUSH2 0x1FEA JUMP JUMPDEST POP POP POP DUP2 PUSH1 0x4 DUP5 PUSH1 0x40 MLOAD PUSH2 0x1ED6 SWAP2 SWAP1 PUSH2 0x2874 JUMP JUMPDEST SWAP1 DUP2 MSTORE PUSH1 0x20 ADD PUSH1 0x40 MLOAD DUP1 SWAP2 SUB SWAP1 KECCAK256 DUP2 SWAP1 SSTORE POP PUSH2 0x1EF2 PUSH1 0x3 PUSH2 0x1F35 JUMP JUMPDEST POP POP POP POP POP JUMP JUMPDEST DUP2 PUSH1 0x2 DUP3 DUP2 SLOAD DUP2 LT PUSH2 0x1F0E JUMPI PUSH2 0x1F0D PUSH2 0x2F17 JUMP JUMPDEST JUMPDEST SWAP1 PUSH1 0x0 MSTORE PUSH1 0x20 PUSH1 0x0 KECCAK256 SWAP1 PUSH1 0x7 MUL ADD PUSH1 0x1 ADD DUP2 SWAP1 SSTORE POP POP POP JUMP JUMPDEST PUSH1 0x0 DUP2 PUSH1 0x0 ADD SLOAD SWAP1 POP SWAP2 SWAP1 POP JUMP JUMPDEST PUSH1 0x1 DUP2 PUSH1 0x0 ADD PUSH1 0x0 DUP3 DUP3 SLOAD ADD SWAP3 POP POP DUP2 SWAP1 SSTORE POP POP JUMP JUMPDEST PUSH1 0x40 MLOAD DUP1 PUSH1 0xC0 ADD PUSH1 0x40 MSTORE DUP1 PUSH1 0x0 DUP2 MSTORE PUSH1 0x20 ADD PUSH1 0x60 DUP2 MSTORE PUSH1 0x20 ADD PUSH1 0x60 DUP2 MSTORE PUSH1 0x20 ADD PUSH1 0x60 DUP2 MSTORE PUSH1 0x20 ADD PUSH1 0x0 ISZERO ISZERO DUP2 MSTORE PUSH1 0x20 ADD PUSH1 0x0 ISZERO ISZERO DUP2 MSTORE POP SWAP1 JUMP JUMPDEST PUSH1 0x40 MLOAD DUP1 PUSH1 0xE0 ADD PUSH1 0x40 MSTORE DUP1 PUSH1 0x0 DUP2 MSTORE PUSH1 0x20 ADD PUSH1 0x0 DUP2 MSTORE PUSH1 0x20 ADD PUSH1 0x0 DUP2 MSTORE PUSH1 0x20 ADD PUSH1 0x0 PUSH1 0x3 DUP2 GT ISZERO PUSH2 0x1FB9 JUMPI PUSH2 0x1FB8 PUSH2 0x2EB9 JUMP JUMPDEST JUMPDEST DUP2 MSTORE PUSH1 0x20 ADD PUSH1 0x0 DUP2 MSTORE PUSH1 0x20 ADD PUSH1 0x0 PUSH20 0xFFFFFFFFFFFFFFFFFFFFFFFFFFFFFFFFFFFFFFFF AND DUP2 MSTORE PUSH1 0x20 ADD PUSH1 0x60 DUP2 MSTORE POP SWAP1 JUMP JUMPDEST DUP3 DUP1 SLOAD PUSH2 0x1FF6 SWAP1 PUSH2 0x2DAF JUMP JUMPDEST SWAP1 PUSH1 0x0 MSTORE PUSH1 0x20 PUSH1 0x0 KECCAK256 SWAP1 PUSH1 0x1F ADD PUSH1 0x20 SWAP1 DIV DUP2 ADD SWAP3 DUP3 PUSH2 0x2018 JUMPI PUSH1 0x0 DUP6 SSTORE PUSH2 0x205F JUMP JUMPDEST DUP3 PUSH1 0x1F LT PUSH2 0x2031 JUMPI DUP1 MLOAD PUSH1 0xFF NOT AND DUP4 DUP1 ADD OR DUP6 SSTORE PUSH2 0x205F JUMP JUMPDEST DUP3 DUP1 ADD PUSH1 0x1 ADD DUP6 SSTORE DUP3 ISZERO PUSH2 0x205F JUMPI SWAP2 DUP3 ADD JUMPDEST DUP3 DUP2 GT ISZERO PUSH2 0x205E JUMPI DUP3 MLOAD DUP3 SSTORE SWAP2 PUSH1 0x20 ADD SWAP2 SWAP1 PUSH1 0x1 ADD SWAP1 PUSH2 0x2043 JUMP JUMPDEST JUMPDEST POP SWAP1 POP PUSH2 0x206C SWAP2 SWAP1 PUSH2 0x2070 JUMP JUMPDEST POP SWAP1 JUMP JUMPDEST JUMPDEST DUP1 DUP3 GT ISZERO PUSH2 0x2089 JUMPI PUSH1 0x0 DUP2 PUSH1 0x0 SWAP1 SSTORE POP PUSH1 0x1 ADD PUSH2 0x2071 JUMP JUMPDEST POP SWAP1 JUMP JUMPDEST PUSH1 0x0 PUSH2 0x20A0 PUSH2 0x209B DUP5 PUSH2 0x2B10 JUMP JUMPDEST PUSH2 0x2AEB JUMP JUMPDEST SWAP1 POP DUP3 DUP2 MSTORE PUSH1 0x20 DUP2 ADD DUP5 DUP5 DUP5 ADD GT ISZERO PUSH2 0x20BC JUMPI PUSH2 0x20BB PUSH2 0x2F7A JUMP JUMPDEST JUMPDEST PUSH2 0x20C7 DUP5 DUP3 DUP6 PUSH2 0x2D6D JUMP JUMPDEST POP SWAP4 SWAP3 POP POP POP JUMP JUMPDEST PUSH1 0x0 DUP2 CALLDATALOAD SWAP1 POP PUSH2 0x20DE DUP2 PUSH2 0x3052 JUMP JUMPDEST SWAP3 SWAP2 POP POP JUMP JUMPDEST PUSH1 0x0 DUP2 CALLDATALOAD SWAP1 POP PUSH2 0x20F3 DUP2 PUSH2 0x3069 JUMP JUMPDEST SWAP3 SWAP2 POP POP JUMP JUMPDEST PUSH1 0x0 DUP3 PUSH1 0x1F DUP4 ADD SLT PUSH2 0x210E JUMPI PUSH2 0x210D PUSH2 0x2F75 JUMP JUMPDEST JUMPDEST DUP2 CALLDATALOAD PUSH2 0x211E DUP5 DUP3 PUSH1 0x20 DUP7 ADD PUSH2 0x208D JUMP JUMPDEST SWAP2 POP POP SWAP3 SWAP2 POP POP JUMP JUMPDEST PUSH1 0x0 DUP2 CALLDATALOAD SWAP1 POP PUSH2 0x2136 DUP2 PUSH2 0x3080 JUMP JUMPDEST SWAP3 SWAP2 POP POP JUMP JUMPDEST PUSH1 0x0 PUSH1 0x20 DUP3 DUP5 SUB SLT ISZERO PUSH2 0x2152 JUMPI PUSH2 0x2151 PUSH2 0x2F84 JUMP JUMPDEST JUMPDEST PUSH1 0x0 PUSH2 0x2160 DUP5 DUP3 DUP6 ADD PUSH2 0x20CF JUMP JUMPDEST SWAP2 POP POP SWAP3 SWAP2 POP POP JUMP JUMPDEST PUSH1 0x0 DUP1 PUSH1 0x0 PUSH1 0x60 DUP5 DUP7 SUB SLT ISZERO PUSH2 0x2182 JUMPI PUSH2 0x2181 PUSH2 0x2F84 JUMP JUMPDEST JUMPDEST PUSH1 0x0 PUSH2 0x2190 DUP7 DUP3 DUP8 ADD PUSH2 0x20CF JUMP JUMPDEST SWAP4 POP POP PUSH1 0x20 DUP5 ADD CALLDATALOAD PUSH8 0xFFFFFFFFFFFFFFFF DUP2 GT ISZERO PUSH2 0x21B1 JUMPI PUSH2 0x21B0 PUSH2 0x2F7F JUMP JUMPDEST JUMPDEST PUSH2 0x21BD DUP7 DUP3 DUP8 ADD PUSH2 0x20F9 JUMP JUMPDEST SWAP3 POP POP PUSH1 0x40 DUP5 ADD CALLDATALOAD PUSH8 0xFFFFFFFFFFFFFFFF DUP2 GT ISZERO PUSH2 0x21DE JUMPI PUSH2 0x21DD PUSH2 0x2F7F JUMP JUMPDEST JUMPDEST PUSH2 0x21EA DUP7 DUP3 DUP8 ADD PUSH2 0x20F9 JUMP JUMPDEST SWAP2 POP POP SWAP3 POP SWAP3 POP SWAP3 JUMP JUMPDEST PUSH1 0x0 PUSH1 0x20 DUP3 DUP5 SUB SLT ISZERO PUSH2 0x220A JUMPI PUSH2 0x2209 PUSH2 0x2F84 JUMP JUMPDEST JUMPDEST PUSH1 0x0 DUP3 ADD CALLDATALOAD PUSH8 0xFFFFFFFFFFFFFFFF DUP2 GT ISZERO PUSH2 0x2228 JUMPI PUSH2 0x2227 PUSH2 0x2F7F JUMP JUMPDEST JUMPDEST PUSH2 0x2234 DUP5 DUP3 DUP6 ADD PUSH2 0x20F9 JUMP JUMPDEST SWAP2 POP POP SWAP3 SWAP2 POP POP JUMP JUMPDEST PUSH1 0x0 DUP1 PUSH1 0x0 DUP1 PUSH1 0x0 PUSH1 0xA0 DUP7 DUP9 SUB SLT ISZERO PUSH2 0x2259 JUMPI PUSH2 0x2258 PUSH2 0x2F84 JUMP JUMPDEST JUMPDEST PUSH1 0x0 DUP7 ADD CALLDATALOAD PUSH8 0xFFFFFFFFFFFFFFFF DUP2 GT ISZERO PUSH2 0x2277 JUMPI PUSH2 0x2276 PUSH2 0x2F7F JUMP JUMPDEST JUMPDEST PUSH2 0x2283 DUP9 DUP3 DUP10 ADD PUSH2 0x20F9 JUMP JUMPDEST SWAP6 POP POP PUSH1 0x20 DUP7 ADD CALLDATALOAD PUSH8 0xFFFFFFFFFFFFFFFF DUP2 GT ISZERO PUSH2 0x22A4 JUMPI PUSH2 0x22A3 PUSH2 0x2F7F JUMP JUMPDEST JUMPDEST PUSH2 0x22B0 DUP9 DUP3 DUP10 ADD PUSH2 0x20F9 JUMP JUMPDEST SWAP5 POP POP PUSH1 0x40 DUP7 ADD CALLDATALOAD PUSH8 0xFFFFFFFFFFFFFFFF DUP2 GT ISZERO PUSH2 0x22D1 JUMPI PUSH2 0x22D0 PUSH2 0x2F7F JUMP JUMPDEST JUMPDEST PUSH2 0x22DD DUP9 DUP3 DUP10 ADD PUSH2 0x20F9 JUMP JUMPDEST SWAP4 POP POP PUSH1 0x60 PUSH2 0x22EE DUP9 DUP3 DUP10 ADD PUSH2 0x20E4 JUMP JUMPDEST SWAP3 POP POP PUSH1 0x80 PUSH2 0x22FF DUP9 DUP3 DUP10 ADD PUSH2 0x20E4 JUMP JUMPDEST SWAP2 POP POP SWAP3 SWAP6 POP SWAP3 SWAP6 SWAP1 SWAP4 POP JUMP JUMPDEST PUSH1 0x0 PUSH1 0x20 DUP3 DUP5 SUB SLT ISZERO PUSH2 0x2322 JUMPI PUSH2 0x2321 PUSH2 0x2F84 JUMP JUMPDEST JUMPDEST PUSH1 0x0 PUSH2 0x2330 DUP5 DUP3 DUP6 ADD PUSH2 0x2127 JUMP JUMPDEST SWAP2 POP POP SWAP3 SWAP2 POP POP JUMP JUMPDEST PUSH1 0x0 DUP1 PUSH1 0x0 PUSH1 0x60 DUP5 DUP7 SUB SLT ISZERO PUSH2 0x2352 JUMPI PUSH2 0x2351 PUSH2 0x2F84 JUMP JUMPDEST JUMPDEST PUSH1 0x0 PUSH2 0x2360 DUP7 DUP3 DUP8 ADD PUSH2 0x2127 JUMP JUMPDEST SWAP4 POP POP PUSH1 0x20 DUP5 ADD CALLDATALOAD PUSH8 0xFFFFFFFFFFFFFFFF DUP2 GT ISZERO PUSH2 0x2381 JUMPI PUSH2 0x2380 PUSH2 0x2F7F JUMP JUMPDEST JUMPDEST PUSH2 0x238D DUP7 DUP3 DUP8 ADD PUSH2 0x20F9 JUMP JUMPDEST SWAP3 POP POP PUSH1 0x40 DUP5 ADD CALLDATALOAD PUSH8 0xFFFFFFFFFFFFFFFF DUP2 GT ISZERO PUSH2 0x23AE JUMPI PUSH2 0x23AD PUSH2 0x2F7F JUMP JUMPDEST JUMPDEST PUSH2 0x23BA DUP7 DUP3 DUP8 ADD PUSH2 0x20F9 JUMP JUMPDEST SWAP2 POP POP SWAP3 POP SWAP3 POP SWAP3 JUMP JUMPDEST PUSH1 0x0 DUP1 PUSH1 0x40 DUP4 DUP6 SUB SLT ISZERO PUSH2 0x23DB JUMPI PUSH2 0x23DA PUSH2 0x2F84 JUMP JUMPDEST JUMPDEST PUSH1 0x0 PUSH2 0x23E9 DUP6 DUP3 DUP7 ADD PUSH2 0x2127 JUMP JUMPDEST SWAP3 POP POP PUSH1 0x20 PUSH2 0x23FA DUP6 DUP3 DUP7 ADD PUSH2 0x2127 JUMP JUMPDEST SWAP2 POP POP SWAP3 POP SWAP3 SWAP1 POP JUMP JUMPDEST PUSH1 0x0 PUSH2 0x2410 DUP4 DUP4 PUSH2 0x2728 JUMP JUMPDEST SWAP1 POP SWAP3 SWAP2 POP POP JUMP JUMPDEST PUSH1 0x0 PUSH2 0x2424 DUP4 DUP4 PUSH2 0x2856 JUMP JUMPDEST PUSH1 0x20 DUP4 ADD SWAP1 POP SWAP3 SWAP2 POP POP JUMP JUMPDEST PUSH2 0x2439 DUP2 PUSH2 0x2D00 JUMP JUMPDEST DUP3 MSTORE POP POP JUMP JUMPDEST PUSH2 0x2448 DUP2 PUSH2 0x2D00 JUMP JUMPDEST DUP3 MSTORE POP POP JUMP JUMPDEST PUSH1 0x0 PUSH2 0x2459 DUP3 PUSH2 0x2B61 JUMP JUMPDEST PUSH2 0x2463 DUP2 DUP6 PUSH2 0x2B9C JUMP JUMPDEST SWAP4 POP DUP4 PUSH1 0x20 DUP3 MUL DUP6 ADD PUSH2 0x2475 DUP6 PUSH2 0x2B41 JUMP JUMPDEST DUP1 PUSH1 0x0 JUMPDEST DUP6 DUP2 LT ISZERO PUSH2 0x24B1 JUMPI DUP5 DUP5 SUB DUP10 MSTORE DUP2 MLOAD PUSH2 0x2492 DUP6 DUP3 PUSH2 0x2404 JUMP JUMPDEST SWAP5 POP PUSH2 0x249D DUP4 PUSH2 0x2B82 JUMP JUMPDEST SWAP3 POP PUSH1 0x20 DUP11 ADD SWAP10 POP POP PUSH1 0x1 DUP2 ADD SWAP1 POP PUSH2 0x2479 JUMP JUMPDEST POP DUP3 SWAP8 POP DUP8 SWAP6 POP POP POP POP POP POP SWAP3 SWAP2 POP POP JUMP JUMPDEST PUSH1 0x0 PUSH2 0x24CE DUP3 PUSH2 0x2B6C JUMP JUMPDEST PUSH2 0x24D8 DUP2 DUP6 PUSH2 0x2BAD JUMP JUMPDEST SWAP4 POP PUSH2 0x24E3 DUP4 PUSH2 0x2B51 JUMP JUMPDEST DUP1 PUSH1 0x0 JUMPDEST DUP4 DUP2 LT ISZERO PUSH2 0x2514 JUMPI DUP2 MLOAD PUSH2 0x24FB DUP9 DUP3 PUSH2 0x2418 JUMP JUMPDEST SWAP8 POP PUSH2 0x2506 DUP4 PUSH2 0x2B8F JUMP JUMPDEST SWAP3 POP POP PUSH1 0x1 DUP2 ADD SWAP1 POP PUSH2 0x24E7 JUMP JUMPDEST POP DUP6 SWAP4 POP POP POP POP SWAP3 SWAP2 POP POP JUMP JUMPDEST PUSH2 0x252A DUP2 PUSH2 0x2D12 JUMP JUMPDEST DUP3 MSTORE POP POP JUMP JUMPDEST PUSH2 0x2539 DUP2 PUSH2 0x2D12 JUMP JUMPDEST DUP3 MSTORE POP POP JUMP JUMPDEST PUSH2 0x2548 DUP2 PUSH2 0x2D5B JUMP JUMPDEST DUP3 MSTORE POP POP JUMP JUMPDEST PUSH2 0x2557 DUP2 PUSH2 0x2D5B JUMP JUMPDEST DUP3 MSTORE POP POP JUMP JUMPDEST PUSH1 0x0 PUSH2 0x2568 DUP3 PUSH2 0x2B77 JUMP JUMPDEST PUSH2 0x2572 DUP2 DUP6 PUSH2 0x2BBE JUMP JUMPDEST SWAP4 POP PUSH2 0x2582 DUP2 DUP6 PUSH1 0x20 DUP7 ADD PUSH2 0x2D7C JUMP JUMPDEST PUSH2 0x258B DUP2 PUSH2 0x2F89 JUMP JUMPDEST DUP5 ADD SWAP2 POP POP SWAP3 SWAP2 POP POP JUMP JUMPDEST PUSH1 0x0 PUSH2 0x25A1 DUP3 PUSH2 0x2B77 JUMP JUMPDEST PUSH2 0x25AB DUP2 DUP6 PUSH2 0x2BCF JUMP JUMPDEST SWAP4 POP PUSH2 0x25BB DUP2 DUP6 PUSH1 0x20 DUP7 ADD PUSH2 0x2D7C JUMP JUMPDEST PUSH2 0x25C4 DUP2 PUSH2 0x2F89 JUMP JUMPDEST DUP5 ADD SWAP2 POP POP SWAP3 SWAP2 POP POP JUMP JUMPDEST PUSH1 0x0 PUSH2 0x25DA DUP3 PUSH2 0x2B77 JUMP JUMPDEST PUSH2 0x25E4 DUP2 DUP6 PUSH2 0x2BE0 JUMP JUMPDEST SWAP4 POP PUSH2 0x25F4 DUP2 DUP6 PUSH1 0x20 DUP7 ADD PUSH2 0x2D7C JUMP JUMPDEST DUP1 DUP5 ADD SWAP2 POP POP SWAP3 SWAP2 POP POP JUMP JUMPDEST PUSH1 0x0 PUSH2 0x260D PUSH1 0x19 DUP4 PUSH2 0x2BCF JUMP JUMPDEST SWAP2 POP PUSH2 0x2618 DUP3 PUSH2 0x2F9A JUMP JUMPDEST PUSH1 0x20 DUP3 ADD SWAP1 POP SWAP2 SWAP1 POP JUMP JUMPDEST PUSH1 0x0 PUSH2 0x2630 PUSH1 0x15 DUP4 PUSH2 0x2BCF JUMP JUMPDEST SWAP2 POP PUSH2 0x263B DUP3 PUSH2 0x2FC3 JUMP JUMPDEST PUSH1 0x20 DUP3 ADD SWAP1 POP SWAP2 SWAP1 POP JUMP JUMPDEST PUSH1 0x0 PUSH2 0x2653 PUSH1 0x1E DUP4 PUSH2 0x2BCF JUMP JUMPDEST SWAP2 POP PUSH2 0x265E DUP3 PUSH2 0x2FEC JUMP JUMPDEST PUSH1 0x20 DUP3 ADD SWAP1 POP SWAP2 SWAP1 POP JUMP JUMPDEST PUSH1 0x0 PUSH2 0x2676 PUSH1 0x15 DUP4 PUSH2 0x2BCF JUMP JUMPDEST SWAP2 POP PUSH2 0x2681 DUP3 PUSH2 0x3015 JUMP JUMPDEST PUSH1 0x20 DUP3 ADD SWAP1 POP SWAP2 SWAP1 POP JUMP JUMPDEST PUSH1 0x0 PUSH1 0xE0 DUP4 ADD PUSH1 0x0 DUP4 ADD MLOAD PUSH2 0x26A4 PUSH1 0x0 DUP7 ADD DUP3 PUSH2 0x2856 JUMP JUMPDEST POP PUSH1 0x20 DUP4 ADD MLOAD PUSH2 0x26B7 PUSH1 0x20 DUP7 ADD DUP3 PUSH2 0x2856 JUMP JUMPDEST POP PUSH1 0x40 DUP4 ADD MLOAD PUSH2 0x26CA PUSH1 0x40 DUP7 ADD DUP3 PUSH2 0x2856 JUMP JUMPDEST POP PUSH1 0x60 DUP4 ADD MLOAD PUSH2 0x26DD PUSH1 0x60 DUP7 ADD DUP3 PUSH2 0x253F JUMP JUMPDEST POP PUSH1 0x80 DUP4 ADD MLOAD PUSH2 0x26F0 PUSH1 0x80 DUP7 ADD DUP3 PUSH2 0x2856 JUMP JUMPDEST POP PUSH1 0xA0 DUP4 ADD MLOAD PUSH2 0x2703 PUSH1 0xA0 DUP7 ADD DUP3 PUSH2 0x2430 JUMP JUMPDEST POP PUSH1 0xC0 DUP4 ADD MLOAD DUP5 DUP3 SUB PUSH1 0xC0 DUP7 ADD MSTORE PUSH2 0x271B DUP3 DUP3 PUSH2 0x255D JUMP JUMPDEST SWAP2 POP POP DUP1 SWAP2 POP POP SWAP3 SWAP2 POP POP JUMP JUMPDEST PUSH1 0x0 PUSH1 0xC0 DUP4 ADD PUSH1 0x0 DUP4 ADD MLOAD PUSH2 0x2740 PUSH1 0x0 DUP7 ADD DUP3 PUSH2 0x2856 JUMP JUMPDEST POP PUSH1 0x20 DUP4 ADD MLOAD DUP5 DUP3 SUB PUSH1 0x20 DUP7 ADD MSTORE PUSH2 0x2758 DUP3 DUP3 PUSH2 0x255D JUMP JUMPDEST SWAP2 POP POP PUSH1 0x40 DUP4 ADD MLOAD DUP5 DUP3 SUB PUSH1 0x40 DUP7 ADD MSTORE PUSH2 0x2772 DUP3 DUP3 PUSH2 0x255D JUMP JUMPDEST SWAP2 POP POP PUSH1 0x60 DUP4 ADD MLOAD DUP5 DUP3 SUB PUSH1 0x60 DUP7 ADD MSTORE PUSH2 0x278C DUP3 DUP3 PUSH2 0x255D JUMP JUMPDEST SWAP2 POP POP PUSH1 0x80 DUP4 ADD MLOAD PUSH2 0x27A1 PUSH1 0x80 DUP7 ADD DUP3 PUSH2 0x2521 JUMP JUMPDEST POP PUSH1 0xA0 DUP4 ADD MLOAD PUSH2 0x27B4 PUSH1 0xA0 DUP7 ADD DUP3 PUSH2 0x2521 JUMP JUMPDEST POP DUP1 SWAP2 POP POP SWAP3 SWAP2 POP POP JUMP JUMPDEST PUSH1 0x0 PUSH1 0xC0 DUP4 ADD PUSH1 0x0 DUP4 ADD MLOAD PUSH2 0x27D7 PUSH1 0x0 DUP7 ADD DUP3 PUSH2 0x2856 JUMP JUMPDEST POP PUSH1 0x20 DUP4 ADD MLOAD DUP5 DUP3 SUB PUSH1 0x20 DUP7 ADD MSTORE PUSH2 0x27EF DUP3 DUP3 PUSH2 0x255D JUMP JUMPDEST SWAP2 POP POP PUSH1 0x40 DUP4 ADD MLOAD DUP5 DUP3 SUB PUSH1 0x40 DUP7 ADD MSTORE PUSH2 0x2809 DUP3 DUP3 PUSH2 0x255D JUMP JUMPDEST SWAP2 POP POP PUSH1 0x60 DUP4 ADD MLOAD DUP5 DUP3 SUB PUSH1 0x60 DUP7 ADD MSTORE PUSH2 0x2823 DUP3 DUP3 PUSH2 0x255D JUMP JUMPDEST SWAP2 POP POP PUSH1 0x80 DUP4 ADD MLOAD PUSH2 0x2838 PUSH1 0x80 DUP7 ADD DUP3 PUSH2 0x2521 JUMP JUMPDEST POP PUSH1 0xA0 DUP4 ADD MLOAD PUSH2 0x284B PUSH1 0xA0 DUP7 ADD DUP3 PUSH2 0x2521 JUMP JUMPDEST POP DUP1 SWAP2 POP POP SWAP3 SWAP2 POP POP JUMP JUMPDEST PUSH2 0x285F DUP2 PUSH2 0x2D51 JUMP JUMPDEST DUP3 MSTORE POP POP JUMP JUMPDEST PUSH2 0x286E DUP2 PUSH2 0x2D51 JUMP JUMPDEST DUP3 MSTORE POP POP JUMP JUMPDEST PUSH1 0x0 PUSH2 0x2880 DUP3 DUP5 PUSH2 0x25CF JUMP JUMPDEST SWAP2 POP DUP2 SWAP1 POP SWAP3 SWAP2 POP POP JUMP JUMPDEST PUSH1 0x0 PUSH1 0x20 DUP3 ADD SWAP1 POP PUSH2 0x28A0 PUSH1 0x0 DUP4 ADD DUP5 PUSH2 0x243F JUMP JUMPDEST SWAP3 SWAP2 POP POP JUMP JUMPDEST PUSH1 0x0 PUSH1 0x20 DUP3 ADD SWAP1 POP DUP2 DUP2 SUB PUSH1 0x0 DUP4 ADD MSTORE PUSH2 0x28C0 DUP2 DUP5 PUSH2 0x244E JUMP JUMPDEST SWAP1 POP SWAP3 SWAP2 POP POP JUMP JUMPDEST PUSH1 0x0 PUSH1 0x20 DUP3 ADD SWAP1 POP DUP2 DUP2 SUB PUSH1 0x0 DUP4 ADD MSTORE PUSH2 0x28E2 DUP2 DUP5 PUSH2 0x24C3 JUMP JUMPDEST SWAP1 POP SWAP3 SWAP2 POP POP JUMP JUMPDEST PUSH1 0x0 PUSH1 0x20 DUP3 ADD SWAP1 POP PUSH2 0x28FF PUSH1 0x0 DUP4 ADD DUP5 PUSH2 0x2530 JUMP JUMPDEST SWAP3 SWAP2 POP POP JUMP JUMPDEST PUSH1 0x0 PUSH1 0x20 DUP3 ADD SWAP1 POP PUSH2 0x291A PUSH1 0x0 DUP4 ADD DUP5 PUSH2 0x254E JUMP JUMPDEST SWAP3 SWAP2 POP POP JUMP JUMPDEST PUSH1 0x0 PUSH1 0x20 DUP3 ADD SWAP1 POP DUP2 DUP2 SUB PUSH1 0x0 DUP4 ADD MSTORE PUSH2 0x2939 DUP2 PUSH2 0x2600 JUMP JUMPDEST SWAP1 POP SWAP2 SWAP1 POP JUMP JUMPDEST PUSH1 0x0 PUSH1 0x20 DUP3 ADD SWAP1 POP DUP2 DUP2 SUB PUSH1 0x0 DUP4 ADD MSTORE PUSH2 0x2959 DUP2 PUSH2 0x2623 JUMP JUMPDEST SWAP1 POP SWAP2 SWAP1 POP JUMP JUMPDEST PUSH1 0x0 PUSH1 0x20 DUP3 ADD SWAP1 POP DUP2 DUP2 SUB PUSH1 0x0 DUP4 ADD MSTORE PUSH2 0x2979 DUP2 PUSH2 0x2646 JUMP JUMPDEST SWAP1 POP SWAP2 SWAP1 POP JUMP JUMPDEST PUSH1 0x0 PUSH1 0x20 DUP3 ADD SWAP1 POP DUP2 DUP2 SUB PUSH1 0x0 DUP4 ADD MSTORE PUSH2 0x2999 DUP2 PUSH2 0x2669 JUMP JUMPDEST SWAP1 POP SWAP2 SWAP1 POP JUMP JUMPDEST PUSH1 0x0 PUSH1 0x20 DUP3 ADD SWAP1 POP DUP2 DUP2 SUB PUSH1 0x0 DUP4 ADD MSTORE PUSH2 0x29BA DUP2 DUP5 PUSH2 0x268C JUMP JUMPDEST SWAP1 POP SWAP3 SWAP2 POP POP JUMP JUMPDEST PUSH1 0x0 PUSH1 0x20 DUP3 ADD SWAP1 POP DUP2 DUP2 SUB PUSH1 0x0 DUP4 ADD MSTORE PUSH2 0x29DC DUP2 DUP5 PUSH2 0x27BF JUMP JUMPDEST SWAP1 POP SWAP3 SWAP2 POP POP JUMP JUMPDEST PUSH1 0x0 PUSH1 0x20 DUP3 ADD SWAP1 POP PUSH2 0x29F9 PUSH1 0x0 DUP4 ADD DUP5 PUSH2 0x2865 JUMP JUMPDEST SWAP3 SWAP2 POP POP JUMP JUMPDEST PUSH1 0x0 PUSH1 0xC0 DUP3 ADD SWAP1 POP PUSH2 0x2A14 PUSH1 0x0 DUP4 ADD DUP10 PUSH2 0x2865 JUMP JUMPDEST DUP2 DUP2 SUB PUSH1 0x20 DUP4 ADD MSTORE PUSH2 0x2A26 DUP2 DUP9 PUSH2 0x2596 JUMP JUMPDEST SWAP1 POP DUP2 DUP2 SUB PUSH1 0x40 DUP4 ADD MSTORE PUSH2 0x2A3A DUP2 DUP8 PUSH2 0x2596 JUMP JUMPDEST SWAP1 POP DUP2 DUP2 SUB PUSH1 0x60 DUP4 ADD MSTORE PUSH2 0x2A4E DUP2 DUP7 PUSH2 0x2596 JUMP JUMPDEST SWAP1 POP PUSH2 0x2A5D PUSH1 0x80 DUP4 ADD DUP6 PUSH2 0x2530 JUMP JUMPDEST PUSH2 0x2A6A PUSH1 0xA0 DUP4 ADD DUP5 PUSH2 0x2530 JUMP JUMPDEST SWAP8 SWAP7 POP POP POP POP POP POP POP JUMP JUMPDEST PUSH1 0x0 PUSH1 0xE0 DUP3 ADD SWAP1 POP PUSH2 0x2A8A PUSH1 0x0 DUP4 ADD DUP11 PUSH2 0x2865 JUMP JUMPDEST PUSH2 0x2A97 PUSH1 0x20 DUP4 ADD DUP10 PUSH2 0x2865 JUMP JUMPDEST PUSH2 0x2AA4 PUSH1 0x40 DUP4 ADD DUP9 PUSH2 0x2865 JUMP JUMPDEST PUSH2 0x2AB1 PUSH1 0x60 DUP4 ADD DUP8 PUSH2 0x254E JUMP JUMPDEST PUSH2 0x2ABE PUSH1 0x80 DUP4 ADD DUP7 PUSH2 0x2865 JUMP JUMPDEST PUSH2 0x2ACB PUSH1 0xA0 DUP4 ADD DUP6 PUSH2 0x243F JUMP JUMPDEST DUP2 DUP2 SUB PUSH1 0xC0 DUP4 ADD MSTORE PUSH2 0x2ADD DUP2 DUP5 PUSH2 0x2596 JUMP JUMPDEST SWAP1 POP SWAP9 SWAP8 POP POP POP POP POP POP POP POP JUMP JUMPDEST PUSH1 0x0 PUSH2 0x2AF5 PUSH2 0x2B06 JUMP JUMPDEST SWAP1 POP PUSH2 0x2B01 DUP3 DUP3 PUSH2 0x2DE1 JUMP JUMPDEST SWAP2 SWAP1 POP JUMP JUMPDEST PUSH1 0x0 PUSH1 0x40 MLOAD SWAP1 POP SWAP1 JUMP JUMPDEST PUSH1 0x0 PUSH8 0xFFFFFFFFFFFFFFFF DUP3 GT ISZERO PUSH2 0x2B2B JUMPI PUSH2 0x2B2A PUSH2 0x2F46 JUMP JUMPDEST JUMPDEST PUSH2 0x2B34 DUP3 PUSH2 0x2F89 JUMP JUMPDEST SWAP1 POP PUSH1 0x20 DUP2 ADD SWAP1 POP SWAP2 SWAP1 POP JUMP JUMPDEST PUSH1 0x0 DUP2 SWAP1 POP PUSH1 0x20 DUP3 ADD SWAP1 POP SWAP2 SWAP1 POP JUMP JUMPDEST PUSH1 0x0 DUP2 SWAP1 POP PUSH1 0x20 DUP3 ADD SWAP1 POP SWAP2 SWAP1 POP JUMP JUMPDEST PUSH1 0x0 DUP2 MLOAD SWAP1 POP SWAP2 SWAP1 POP JUMP JUMPDEST PUSH1 0x0 DUP2 MLOAD SWAP1 POP SWAP2 SWAP1 POP JUMP JUMPDEST PUSH1 0x0 DUP2 MLOAD SWAP1 POP SWAP2 SWAP1 POP JUMP JUMPDEST PUSH1 0x0 PUSH1 0x20 DUP3 ADD SWAP1 POP SWAP2 SWAP1 POP JUMP JUMPDEST PUSH1 0x0 PUSH1 0x20 DUP3 ADD SWAP1 POP SWAP2 SWAP1 POP JUMP JUMPDEST PUSH1 0x0 DUP3 DUP3 MSTORE PUSH1 0x20 DUP3 ADD SWAP1 POP SWAP3 SWAP2 POP POP JUMP JUMPDEST PUSH1 0x0 DUP3 DUP3 MSTORE PUSH1 0x20 DUP3 ADD SWAP1 POP SWAP3 SWAP2 POP POP JUMP JUMPDEST PUSH1 0x0 DUP3 DUP3 MSTORE PUSH1 0x20 DUP3 ADD SWAP1 POP SWAP3 SWAP2 POP POP JUMP JUMPDEST PUSH1 0x0 DUP3 DUP3 MSTORE PUSH1 0x20 DUP3 ADD SWAP1 POP SWAP3 SWAP2 POP POP JUMP JUMPDEST PUSH1 0x0 DUP2 SWAP1 POP SWAP3 SWAP2 POP POP JUMP JUMPDEST PUSH1 0x0 PUSH2 0x2BF6 DUP3 PUSH2 0x2D51 JUMP JUMPDEST SWAP2 POP PUSH2 0x2C01 DUP4 PUSH2 0x2D51 JUMP JUMPDEST SWAP3 POP DUP3 PUSH32 0xFFFFFFFFFFFFFFFFFFFFFFFFFFFFFFFFFFFFFFFFFFFFFFFFFFFFFFFFFFFFFFFF SUB DUP3 GT ISZERO PUSH2 0x2C36 JUMPI PUSH2 0x2C35 PUSH2 0x2E5B JUMP JUMPDEST JUMPDEST DUP3 DUP3 ADD SWAP1 POP SWAP3 SWAP2 POP POP JUMP JUMPDEST PUSH1 0x0 PUSH2 0x2C4C DUP3 PUSH2 0x2D51 JUMP JUMPDEST SWAP2 POP PUSH2 0x2C57 DUP4 PUSH2 0x2D51 JUMP JUMPDEST SWAP3 POP DUP3 PUSH2 0x2C67 JUMPI PUSH2 0x2C66 PUSH2 0x2E8A JUMP JUMPDEST JUMPDEST DUP3 DUP3 DIV SWAP1 POP SWAP3 SWAP2 POP POP JUMP JUMPDEST PUSH1 0x0 PUSH2 0x2C7D DUP3 PUSH2 0x2D51 JUMP JUMPDEST SWAP2 POP PUSH2 0x2C88 DUP4 PUSH2 0x2D51 JUMP JUMPDEST SWAP3 POP DUP2 PUSH32 0xFFFFFFFFFFFFFFFFFFFFFFFFFFFFFFFFFFFFFFFFFFFFFFFFFFFFFFFFFFFFFFFF DIV DUP4 GT DUP3 ISZERO ISZERO AND ISZERO PUSH2 0x2CC1 JUMPI PUSH2 0x2CC0 PUSH2 0x2E5B JUMP JUMPDEST JUMPDEST DUP3 DUP3 MUL SWAP1 POP SWAP3 SWAP2 POP POP JUMP JUMPDEST PUSH1 0x0 PUSH2 0x2CD7 DUP3 PUSH2 0x2D51 JUMP JUMPDEST SWAP2 POP PUSH2 0x2CE2 DUP4 PUSH2 0x2D51 JUMP JUMPDEST SWAP3 POP DUP3 DUP3 LT ISZERO PUSH2 0x2CF5 JUMPI PUSH2 0x2CF4 PUSH2 0x2E5B JUMP JUMPDEST JUMPDEST DUP3 DUP3 SUB SWAP1 POP SWAP3 SWAP2 POP POP JUMP JUMPDEST PUSH1 0x0 PUSH2 0x2D0B DUP3 PUSH2 0x2D31 JUMP JUMPDEST SWAP1 POP SWAP2 SWAP1 POP JUMP JUMPDEST PUSH1 0x0 DUP2 ISZERO ISZERO SWAP1 POP SWAP2 SWAP1 POP JUMP JUMPDEST PUSH1 0x0 DUP2 SWAP1 POP PUSH2 0x2D2C DUP3 PUSH2 0x303E JUMP JUMPDEST SWAP2 SWAP1 POP JUMP JUMPDEST PUSH1 0x0 PUSH20 0xFFFFFFFFFFFFFFFFFFFFFFFFFFFFFFFFFFFFFFFF DUP3 AND SWAP1 POP SWAP2 SWAP1 POP JUMP JUMPDEST PUSH1 0x0 DUP2 SWAP1 POP SWAP2 SWAP1 POP JUMP JUMPDEST PUSH1 0x0 PUSH2 0x2D66 DUP3 PUSH2 0x2D1E JUMP JUMPDEST SWAP1 POP SWAP2 SWAP1 POP JUMP JUMPDEST DUP3 DUP2 DUP4 CALLDATACOPY PUSH1 0x0 DUP4 DUP4 ADD MSTORE POP POP POP JUMP JUMPDEST PUSH1 0x0 JUMPDEST DUP4 DUP2 LT ISZERO PUSH2 0x2D9A JUMPI DUP1 DUP3 ADD MLOAD DUP2 DUP5 ADD MSTORE PUSH1 0x20 DUP2 ADD SWAP1 POP PUSH2 0x2D7F JUMP JUMPDEST DUP4 DUP2 GT ISZERO PUSH2 0x2DA9 JUMPI PUSH1 0x0 DUP5 DUP5 ADD MSTORE JUMPDEST POP POP POP POP JUMP JUMPDEST PUSH1 0x0 PUSH1 0x2 DUP3 DIV SWAP1 POP PUSH1 0x1 DUP3 AND DUP1 PUSH2 0x2DC7 JUMPI PUSH1 0x7F DUP3 AND SWAP2 POP JUMPDEST PUSH1 0x20 DUP3 LT DUP2 EQ ISZERO PUSH2 0x2DDB JUMPI PUSH2 0x2DDA PUSH2 0x2EE8 JUMP JUMPDEST JUMPDEST POP SWAP2 SWAP1 POP JUMP JUMPDEST PUSH2 0x2DEA DUP3 PUSH2 0x2F89 JUMP JUMPDEST DUP2 ADD DUP2 DUP2 LT PUSH8 0xFFFFFFFFFFFFFFFF DUP3 GT OR ISZERO PUSH2 0x2E09 JUMPI PUSH2 0x2E08 PUSH2 0x2F46 JUMP JUMPDEST JUMPDEST DUP1 PUSH1 0x40 MSTORE POP POP POP JUMP JUMPDEST PUSH1 0x0 PUSH2 0x2E1D DUP3 PUSH2 0x2D51 JUMP JUMPDEST SWAP2 POP PUSH32 0xFFFFFFFFFFFFFFFFFFFFFFFFFFFFFFFFFFFFFFFFFFFFFFFFFFFFFFFFFFFFFFFF DUP3 EQ ISZERO PUSH2 0x2E50 JUMPI PUSH2 0x2E4F PUSH2 0x2E5B JUMP JUMPDEST JUMPDEST PUSH1 0x1 DUP3 ADD SWAP1 POP SWAP2 SWAP1 POP JUMP JUMPDEST PUSH32 0x4E487B7100000000000000000000000000000000000000000000000000000000 PUSH1 0x0 MSTORE PUSH1 0x11 PUSH1 0x4 MSTORE PUSH1 0x24 PUSH1 0x0 REVERT JUMPDEST PUSH32 0x4E487B7100000000000000000000000000000000000000000000000000000000 PUSH1 0x0 MSTORE PUSH1 0x12 PUSH1 0x4 MSTORE PUSH1 0x24 PUSH1 0x0 REVERT JUMPDEST PUSH32 0x4E487B7100000000000000000000000000000000000000000000000000000000 PUSH1 0x0 MSTORE PUSH1 0x21 PUSH1 0x4 MSTORE PUSH1 0x24 PUSH1 0x0 REVERT JUMPDEST PUSH32 0x4E487B7100000000000000000000000000000000000000000000000000000000 PUSH1 0x0 MSTORE PUSH1 0x22 PUSH1 0x4 MSTORE PUSH1 0x24 PUSH1 0x0 REVERT JUMPDEST PUSH32 0x4E487B7100000000000000000000000000000000000000000000000000000000 PUSH1 0x0 MSTORE PUSH1 0x32 PUSH1 0x4 MSTORE PUSH1 0x24 PUSH1 0x0 REVERT JUMPDEST PUSH32 0x4E487B7100000000000000000000000000000000000000000000000000000000 PUSH1 0x0 MSTORE PUSH1 0x41 PUSH1 0x4 MSTORE PUSH1 0x24 PUSH1 0x0 REVERT JUMPDEST PUSH1 0x0 DUP1 REVERT JUMPDEST PUSH1 0x0 DUP1 REVERT JUMPDEST PUSH1 0x0 DUP1 REVERT JUMPDEST PUSH1 0x0 DUP1 REVERT JUMPDEST PUSH1 0x0 PUSH1 0x1F NOT PUSH1 0x1F DUP4 ADD AND SWAP1 POP SWAP2 SWAP1 POP JUMP JUMPDEST PUSH32 0x42617474657279206973206E6F7420696E2073746174696F6E00000000000000 PUSH1 0x0 DUP3 ADD MSTORE POP JUMP JUMPDEST PUSH32 0x5573657220686173206E6F206261747465726965730000000000000000000000 PUSH1 0x0 DUP3 ADD MSTORE POP JUMP JUMPDEST PUSH32 0x4E6F7420656E6F7567682062617474657269657320617661696C61626C650000 PUSH1 0x0 DUP3 ADD MSTORE POP JUMP JUMPDEST PUSH32 0x42617474657279206973206E6F7420696E207573650000000000000000000000 PUSH1 0x0 DUP3 ADD MSTORE POP JUMP JUMPDEST PUSH1 0x4 DUP2 LT PUSH2 0x304F JUMPI PUSH2 0x304E PUSH2 0x2EB9 JUMP JUMPDEST JUMPDEST POP JUMP JUMPDEST PUSH2 0x305B DUP2 PUSH2 0x2D00 JUMP JUMPDEST DUP2 EQ PUSH2 0x3066 JUMPI PUSH1 0x0 DUP1 REVERT JUMPDEST POP JUMP JUMPDEST PUSH2 0x3072 DUP2 PUSH2 0x2D12 JUMP JUMPDEST DUP2 EQ PUSH2 0x307D JUMPI PUSH1 0x0 DUP1 REVERT JUMPDEST POP JUMP JUMPDEST PUSH2 0x3089 DUP2 PUSH2 0x2D51 JUMP JUMPDEST DUP2 EQ PUSH2 0x3094 JUMPI PUSH1 0x0 DUP1 REVERT JUMPDEST POP JUMP INVALID LOG2 PUSH5 0x6970667358 0x22 SLT KECCAK256 0xD9 0xCA PUSH2 0xB19C 0x4D CALLER 0xDB 0xB4 PUSH19 0x614EC5B38693CC21D88708FD9CB62B78498B7A STATICCALL 0xA8 SAR PUSH5 0x736F6C6343 STOP ADDMOD SMOD STOP CALLER "},"methodIdentifiers":{"addNewBatteryToStation(uint256,string,string)":"e904311f","addNewBatteryToUser(address,string,string)":"f055784c","addNewStation(string,string,string,bool,bool)":"921637cd","batteries(uint256)":"5f392c90","check(address)":"c23697a8","ethPerCharge()":"5d07b4b4","getAllStations()":"2118f9c4","getBatteriesByStation(uint256)":"c78efc5c","getBatteriesByUser(address)":"27b6a3b4","getBatteryById(uint256)":"6ff0efcb","getBatteryCurrentStation(uint256)":"e3c51065","getBatteryCurrentUser(uint256)":"bf228190","getBatteryPercentage(uint256)":"333d1645","getBatteryStatus(uint256)":"1722cbe8","getStation(uint256)":"106e054d","rfidToBattery(string)":"995fcac8","scan(address)":"e70c6f8d","stations(uint256)":"92f859db","swapAllBatteries(uint256)":"4b0b292e","toggleStationActivity(uint256)":"ed44706b","totalCostForUser(address)":"6837e1e4","updateBatteryCharge(uint256,uint256)":"fb299219","updateEthPerCharge(uint256)":"6bcf5781","userToLastScanned(address)":"b23e95a3"}}}}}