{
  "_format": "hh-sol-artifact-1",
  "contractName": "Stations",
  "sourceName": "contracts/Stations.sol",
  "abi": [
    {
      "inputs": [
        {
          "internalType": "string",
          "name": "_location",
          "type": "string"
        },
        {
          "internalType": "string",
          "name": "_latitude",
          "type": "string"
        },
        {
          "internalType": "string",
          "name": "_longitude",
          "type": "string"
        },
        {
          "internalType": "bool",
          "name": "_isActive",
          "type": "bool"
        },
        {
          "internalType": "bool",
          "name": "_isRenewable",
          "type": "bool"
        }
      ],
      "name": "addNewStation",
      "outputs": [],
      "stateMutability": "nonpayable",
      "type": "function"
    },
    {
      "inputs": [],
      "name": "getAllStations",
      "outputs": [
        {
          "components": [
            {
              "internalType": "uint256",
              "name": "id",
              "type": "uint256"
            },
            {
              "internalType": "string",
              "name": "location",
              "type": "string"
            },
            {
              "internalType": "string",
              "name": "latitude",
              "type": "string"
            },
            {
              "internalType": "string",
              "name": "longitude",
              "type": "string"
            },
            {
              "internalType": "bool",
              "name": "isActive",
              "type": "bool"
            },
            {
              "internalType": "bool",
              "name": "isRenewable",
              "type": "bool"
            }
          ],
          "internalType": "struct Stations.Station[]",
          "name": "",
          "type": "tuple[]"
        }
      ],
      "stateMutability": "view",
      "type": "function"
    },
    {
      "inputs": [
        {
          "internalType": "uint256",
          "name": "_id",
          "type": "uint256"
        }
      ],
      "name": "getStation",
      "outputs": [
        {
          "components": [
            {
              "internalType": "uint256",
              "name": "id",
              "type": "uint256"
            },
            {
              "internalType": "string",
              "name": "location",
              "type": "string"
            },
            {
              "internalType": "string",
              "name": "latitude",
              "type": "string"
            },
            {
              "internalType": "string",
              "name": "longitude",
              "type": "string"
            },
            {
              "internalType": "bool",
              "name": "isActive",
              "type": "bool"
            },
            {
              "internalType": "bool",
              "name": "isRenewable",
              "type": "bool"
            }
          ],
          "internalType": "struct Stations.Station",
          "name": "",
          "type": "tuple"
        }
      ],
      "stateMutability": "view",
      "type": "function"
    },
    {
      "inputs": [
        {
          "internalType": "uint256",
          "name": "",
          "type": "uint256"
        }
      ],
      "name": "stations",
      "outputs": [
        {
          "internalType": "uint256",
          "name": "id",
          "type": "uint256"
        },
        {
          "internalType": "string",
          "name": "location",
          "type": "string"
        },
        {
          "internalType": "string",
          "name": "latitude",
          "type": "string"
        },
        {
          "internalType": "string",
          "name": "longitude",
          "type": "string"
        },
        {
          "internalType": "bool",
          "name": "isActive",
          "type": "bool"
        },
        {
          "internalType": "bool",
          "name": "isRenewable",
          "type": "bool"
        }
      ],
      "stateMutability": "view",
      "type": "function"
    },
    {
      "inputs": [
        {
          "internalType": "uint256",
          "name": "_id",
          "type": "uint256"
        }
      ],
      "name": "toggleStationActivity",
      "outputs": [],
      "stateMutability": "nonpayable",
      "type": "function"
    }
  ],
  "bytecode": "0x608060405234801561001057600080fd5b50611333806100206000396000f3fe608060405234801561001057600080fd5b50600436106100575760003560e01c8063106e054d1461005c5780632118f9c41461008c578063921637cd146100aa57806392f859db146100c6578063ed44706b146100fb575b600080fd5b610076600480360381019061007191906109c7565b610117565b6040516100839190610b45565b60405180910390f35b610094610349565b6040516100a19190610cc0565b60405180910390f35b6100c460048036038101906100bf9190610e43565b61059e565b005b6100e060048036038101906100db91906109c7565b6106ae565b6040516100f296959493929190610f7a565b60405180910390f35b610115600480360381019061011091906109c7565b6108ac565b005b61011f610943565b6000828154811061013357610132610ff0565b5b90600052602060002090600502016040518060c0016040529081600082015481526020016001820180546101669061104e565b80601f01602080910402602001604051908101604052809291908181526020018280546101929061104e565b80156101df5780601f106101b4576101008083540402835291602001916101df565b820191906000526020600020905b8154815290600101906020018083116101c257829003601f168201915b505050505081526020016002820180546101f89061104e565b80601f01602080910402602001604051908101604052809291908181526020018280546102249061104e565b80156102715780601f1061024657610100808354040283529160200191610271565b820191906000526020600020905b81548152906001019060200180831161025457829003601f168201915b5050505050815260200160038201805461028a9061104e565b80601f01602080910402602001604051908101604052809291908181526020018280546102b69061104e565b80156103035780601f106102d857610100808354040283529160200191610303565b820191906000526020600020905b8154815290600101906020018083116102e657829003601f168201915b505050505081526020016004820160009054906101000a900460ff161515151581526020016004820160019054906101000a900460ff1615151515815250509050919050565b60606000805480602002602001604051908101604052809291908181526020016000905b8282101561059557838290600052602060002090600502016040518060c0016040529081600082015481526020016001820180546103aa9061104e565b80601f01602080910402602001604051908101604052809291908181526020018280546103d69061104e565b80156104235780601f106103f857610100808354040283529160200191610423565b820191906000526020600020905b81548152906001019060200180831161040657829003601f168201915b5050505050815260200160028201805461043c9061104e565b80601f01602080910402602001604051908101604052809291908181526020018280546104689061104e565b80156104b55780601f1061048a576101008083540402835291602001916104b5565b820191906000526020600020905b81548152906001019060200180831161049857829003601f168201915b505050505081526020016003820180546104ce9061104e565b80601f01602080910402602001604051908101604052809291908181526020018280546104fa9061104e565b80156105475780601f1061051c57610100808354040283529160200191610547565b820191906000526020600020905b81548152906001019060200180831161052a57829003601f168201915b505050505081526020016004820160009054906101000a900460ff161515151581526020016004820160019054906101000a900460ff1615151515815250508152602001906001019061036d565b50505050905090565b60006105aa600161091f565b905060006040518060c0016040528083815260200188815260200187815260200186815260200185151581526020018415158152509050600081908060018154018082558091505060019003906000526020600020906005020160009091909190915060008201518160000155602082015181600101908161062c919061122b565b506040820151816002019081610642919061122b565b506060820151816003019081610658919061122b565b5060808201518160040160006101000a81548160ff02191690831515021790555060a08201518160040160016101000a81548160ff02191690831515021790555050506106a5600161092d565b50505050505050565b600081815481106106be57600080fd5b90600052602060002090600502016000915090508060000154908060010180546106e79061104e565b80601f01602080910402602001604051908101604052809291908181526020018280546107139061104e565b80156107605780601f1061073557610100808354040283529160200191610760565b820191906000526020600020905b81548152906001019060200180831161074357829003601f168201915b5050505050908060020180546107759061104e565b80601f01602080910402602001604051908101604052809291908181526020018280546107a19061104e565b80156107ee5780601f106107c3576101008083540402835291602001916107ee565b820191906000526020600020905b8154815290600101906020018083116107d157829003601f168201915b5050505050908060030180546108039061104e565b80601f016020809104026020016040519081016040528092919081815260200182805461082f9061104e565b801561087c5780601f106108515761010080835404028352916020019161087c565b820191906000526020600020905b81548152906001019060200180831161085f57829003601f168201915b5050505050908060040160009054906101000a900460ff16908060040160019054906101000a900460ff16905086565b600081815481106108c0576108bf610ff0565b5b906000526020600020906005020160040160009054906101000a900460ff1615600082815481106108f4576108f3610ff0565b5b906000526020600020906005020160040160006101000a81548160ff02191690831515021790555050565b600081600001549050919050565b6001816000016000828254019250508190555050565b6040518060c00160405280600081526020016060815260200160608152602001606081526020016000151581526020016000151581525090565b6000604051905090565b600080fd5b600080fd5b6000819050919050565b6109a481610991565b81146109af57600080fd5b50565b6000813590506109c18161099b565b92915050565b6000602082840312156109dd576109dc610987565b5b60006109eb848285016109b2565b91505092915050565b6109fd81610991565b82525050565b600081519050919050565b600082825260208201905092915050565b60005b83811015610a3d578082015181840152602081019050610a22565b60008484015250505050565b6000601f19601f8301169050919050565b6000610a6582610a03565b610a6f8185610a0e565b9350610a7f818560208601610a1f565b610a8881610a49565b840191505092915050565b60008115159050919050565b610aa881610a93565b82525050565b600060c083016000830151610ac660008601826109f4565b5060208301518482036020860152610ade8282610a5a565b91505060408301518482036040860152610af88282610a5a565b91505060608301518482036060860152610b128282610a5a565b9150506080830151610b276080860182610a9f565b5060a0830151610b3a60a0860182610a9f565b508091505092915050565b60006020820190508181036000830152610b5f8184610aae565b905092915050565b600081519050919050565b600082825260208201905092915050565b6000819050602082019050919050565b600060c083016000830151610bab60008601826109f4565b5060208301518482036020860152610bc38282610a5a565b91505060408301518482036040860152610bdd8282610a5a565b91505060608301518482036060860152610bf78282610a5a565b9150506080830151610c0c6080860182610a9f565b5060a0830151610c1f60a0860182610a9f565b508091505092915050565b6000610c368383610b93565b905092915050565b6000602082019050919050565b6000610c5682610b67565b610c608185610b72565b935083602082028501610c7285610b83565b8060005b85811015610cae5784840389528151610c8f8582610c2a565b9450610c9a83610c3e565b925060208a01995050600181019050610c76565b50829750879550505050505092915050565b60006020820190508181036000830152610cda8184610c4b565b905092915050565b600080fd5b600080fd5b7f4e487b7100000000000000000000000000000000000000000000000000000000600052604160045260246000fd5b610d2482610a49565b810181811067ffffffffffffffff82111715610d4357610d42610cec565b5b80604052505050565b6000610d5661097d565b9050610d628282610d1b565b919050565b600067ffffffffffffffff821115610d8257610d81610cec565b5b610d8b82610a49565b9050602081019050919050565b82818337600083830152505050565b6000610dba610db584610d67565b610d4c565b905082815260208101848484011115610dd657610dd5610ce7565b5b610de1848285610d98565b509392505050565b600082601f830112610dfe57610dfd610ce2565b5b8135610e0e848260208601610da7565b91505092915050565b610e2081610a93565b8114610e2b57600080fd5b50565b600081359050610e3d81610e17565b92915050565b600080600080600060a08688031215610e5f57610e5e610987565b5b600086013567ffffffffffffffff811115610e7d57610e7c61098c565b5b610e8988828901610de9565b955050602086013567ffffffffffffffff811115610eaa57610ea961098c565b5b610eb688828901610de9565b945050604086013567ffffffffffffffff811115610ed757610ed661098c565b5b610ee388828901610de9565b9350506060610ef488828901610e2e565b9250506080610f0588828901610e2e565b9150509295509295909350565b610f1b81610991565b82525050565b600082825260208201905092915050565b6000610f3d82610a03565b610f478185610f21565b9350610f57818560208601610a1f565b610f6081610a49565b840191505092915050565b610f7481610a93565b82525050565b600060c082019050610f8f6000830189610f12565b8181036020830152610fa18188610f32565b90508181036040830152610fb58187610f32565b90508181036060830152610fc98186610f32565b9050610fd86080830185610f6b565b610fe560a0830184610f6b565b979650505050505050565b7f4e487b7100000000000000000000000000000000000000000000000000000000600052603260045260246000fd5b7f4e487b7100000000000000000000000000000000000000000000000000000000600052602260045260246000fd5b6000600282049050600182168061106657607f821691505b6020821081036110795761107861101f565b5b50919050565b60008190508160005260206000209050919050565b60006020601f8301049050919050565b600082821b905092915050565b6000600883026110e17fffffffffffffffffffffffffffffffffffffffffffffffffffffffffffffffff826110a4565b6110eb86836110a4565b95508019841693508086168417925050509392505050565b6000819050919050565b600061112861112361111e84610991565b611103565b610991565b9050919050565b6000819050919050565b6111428361110d565b61115661114e8261112f565b8484546110b1565b825550505050565b600090565b61116b61115e565b611176818484611139565b505050565b5b8181101561119a5761118f600082611163565b60018101905061117c565b5050565b601f8211156111df576111b08161107f565b6111b984611094565b810160208510156111c8578190505b6111dc6111d485611094565b83018261117b565b50505b505050565b600082821c905092915050565b6000611202600019846008026111e4565b1980831691505092915050565b600061121b83836111f1565b9150826002028217905092915050565b61123482610a03565b67ffffffffffffffff81111561124d5761124c610cec565b5b611257825461104e565b61126282828561119e565b600060209050601f8311600181146112955760008415611283578287015190505b61128d858261120f565b8655506112f5565b601f1984166112a38661107f565b60005b828110156112cb578489015182556001820191506020850194506020810190506112a6565b868310156112e857848901516112e4601f8916826111f1565b8355505b6001600288020188555050505b50505050505056fea264697066735822122053f285a52dcc8bdbcbf4bd13d83ad127046eb8ade8b810fd56387895611f1e4064736f6c63430008110033",
  "linkReferences": {},
  "deployedLinkReferences": {}
}